{
  "contractName": "Node",
  "abi": [
    {
      "inputs": [
        {
          "internalType": "address",
          "name": "defaultPublicContractAddress",
          "type": "address"
        }
      ],
      "stateMutability": "nonpayable",
      "type": "constructor"
    },
    {
      "inputs": [],
      "name": "myState",
      "outputs": [
        {
          "internalType": "string",
          "name": "",
          "type": "string"
        }
      ],
      "stateMutability": "view",
      "type": "function"
    },
    {
      "inputs": [
        {
          "internalType": "string",
          "name": "tempUserName",
          "type": "string"
        }
      ],
      "name": "isUserNameExist",
      "outputs": [
        {
          "internalType": "bool",
          "name": "",
          "type": "bool"
        }
      ],
      "stateMutability": "view",
      "type": "function"
    },
    {
      "inputs": [],
      "name": "isRegistered",
      "outputs": [
        {
          "internalType": "bool",
          "name": "",
          "type": "bool"
        }
      ],
      "stateMutability": "view",
      "type": "function"
    },
    {
      "inputs": [
        {
          "internalType": "string",
          "name": "name",
          "type": "string"
        }
      ],
      "name": "registerToPublicContract",
      "outputs": [],
      "stateMutability": "nonpayable",
      "type": "function"
    },
    {
      "inputs": [
        {
          "internalType": "address",
          "name": "publicAddress",
          "type": "address"
        }
      ],
      "name": "getContractAddressOfPublicAddress",
      "outputs": [
        {
          "internalType": "address",
          "name": "",
          "type": "address"
        }
      ],
      "stateMutability": "view",
      "type": "function"
    },
    {
      "inputs": [],
      "name": "getUserName",
      "outputs": [
        {
          "internalType": "string",
          "name": "",
          "type": "string"
        }
      ],
      "stateMutability": "view",
      "type": "function"
    },
    {
      "inputs": [],
      "name": "getOtp",
      "outputs": [
        {
          "internalType": "string",
          "name": "",
          "type": "string"
        }
      ],
      "stateMutability": "view",
      "type": "function"
    },
    {
      "inputs": [],
      "name": "getEmailAddress",
      "outputs": [
        {
          "internalType": "string",
          "name": "",
          "type": "string"
        }
      ],
      "stateMutability": "view",
      "type": "function"
    },
    {
      "inputs": [
        {
          "internalType": "string",
          "name": "tempOtp",
          "type": "string"
        }
      ],
      "name": "compareOtpHash",
      "outputs": [
        {
          "internalType": "bool",
          "name": "",
          "type": "bool"
        }
      ],
      "stateMutability": "view",
      "type": "function"
    },
    {
      "inputs": [
        {
          "internalType": "string",
          "name": "email",
          "type": "string"
        }
      ],
      "name": "setEmail",
      "outputs": [],
      "stateMutability": "nonpayable",
      "type": "function"
    },
    {
      "inputs": [
        {
          "internalType": "string",
          "name": "vault",
          "type": "string"
        }
      ],
      "name": "setEncryptedVault",
      "outputs": [],
      "stateMutability": "nonpayable",
      "type": "function"
    },
    {
      "inputs": [],
      "name": "checkRequestsForBeAHolder",
      "outputs": [
        {
          "internalType": "address[]",
          "name": "",
          "type": "address[]"
        }
      ],
      "stateMutability": "view",
      "type": "function"
    },
    {
      "inputs": [
        {
          "internalType": "address",
          "name": "secretOwner",
          "type": "address"
        }
      ],
      "name": "acceptInvitation",
      "outputs": [],
      "stateMutability": "nonpayable",
      "type": "function"
    },
    {
      "inputs": [
        {
          "internalType": "address",
          "name": "secretOwner",
          "type": "address"
        }
      ],
      "name": "rejectInvitation",
      "outputs": [],
      "stateMutability": "nonpayable",
      "type": "function"
    },
    {
      "inputs": [
        {
          "internalType": "address",
          "name": "ownerAddress",
          "type": "address"
        },
        {
          "internalType": "string",
          "name": "sharedString",
          "type": "string"
        }
      ],
      "name": "takeTheSecretFromTheOwner",
      "outputs": [],
      "stateMutability": "nonpayable",
      "type": "function"
    },
    {
      "inputs": [],
      "name": "checkRequestsForShare",
      "outputs": [
        {
          "internalType": "address[]",
          "name": "",
          "type": "address[]"
        }
      ],
      "stateMutability": "view",
      "type": "function"
    },
    {
      "inputs": [
        {
          "internalType": "address",
          "name": "secretOwnerAddress",
          "type": "address"
        }
      ],
      "name": "deleteSecretOwnerFromList",
      "outputs": [],
      "stateMutability": "nonpayable",
      "type": "function"
    },
    {
      "inputs": [
        {
          "internalType": "address",
          "name": "secretOwnerAddress",
          "type": "address"
        }
      ],
      "name": "releaseSecret",
      "outputs": [],
      "stateMutability": "nonpayable",
      "type": "function"
    },
    {
      "inputs": [],
      "name": "checkAcceptance",
      "outputs": [
        {
          "internalType": "bool",
          "name": "",
          "type": "bool"
        }
      ],
      "stateMutability": "nonpayable",
      "type": "function"
    },
    {
      "inputs": [],
      "name": "getMyState",
      "outputs": [
        {
          "internalType": "string",
          "name": "",
          "type": "string"
        }
      ],
      "stateMutability": "view",
      "type": "function"
    },
    {
      "inputs": [],
      "name": "refreshState",
      "outputs": [],
      "stateMutability": "nonpayable",
      "type": "function"
    },
    {
      "inputs": [
        {
          "internalType": "address payable",
          "name": "shareHolder",
          "type": "address"
        }
      ],
      "name": "addTemporaryShareHolders",
      "outputs": [],
      "stateMutability": "nonpayable",
      "type": "function"
    },
    {
      "inputs": [
        {
          "internalType": "string[]",
          "name": "myShares",
          "type": "string[]"
        }
      ],
      "name": "addMyShares",
      "outputs": [],
      "stateMutability": "nonpayable",
      "type": "function"
    },
    {
      "inputs": [],
      "name": "getMyShares",
      "outputs": [
        {
          "internalType": "string[]",
          "name": "",
          "type": "string[]"
        }
      ],
      "stateMutability": "view",
      "type": "function"
    },
    {
      "inputs": [],
      "name": "getRequestedShareHolders",
      "outputs": [
        {
          "internalType": "address[]",
          "name": "",
          "type": "address[]"
        }
      ],
      "stateMutability": "view",
      "type": "function"
    },
    {
      "inputs": [],
      "name": "getShareHolders",
      "outputs": [
        {
          "internalType": "address[]",
          "name": "",
          "type": "address[]"
        }
      ],
      "stateMutability": "view",
      "type": "function"
    },
    {
      "inputs": [],
      "name": "getRejectedShareHolders",
      "outputs": [
        {
          "internalType": "address[]",
          "name": "",
          "type": "address[]"
        }
      ],
      "stateMutability": "view",
      "type": "function"
    },
    {
      "inputs": [
        {
          "internalType": "uint256",
          "name": "index",
          "type": "uint256"
        }
      ],
      "name": "remove",
      "outputs": [],
      "stateMutability": "nonpayable",
      "type": "function"
    },
    {
      "inputs": [
        {
          "internalType": "address payable",
          "name": "shareHolder",
          "type": "address"
        }
      ],
      "name": "removeShareHolders",
      "outputs": [],
      "stateMutability": "nonpayable",
      "type": "function"
    },
    {
      "inputs": [],
      "name": "makingHolderRequests",
      "outputs": [],
      "stateMutability": "nonpayable",
      "type": "function"
    },
    {
      "inputs": [],
      "name": "refreshHolderLists",
      "outputs": [],
      "stateMutability": "nonpayable",
      "type": "function"
    },
    {
      "inputs": [
        {
          "internalType": "string",
          "name": "email",
          "type": "string"
        },
        {
          "internalType": "string",
          "name": "vault",
          "type": "string"
        }
      ],
      "name": "distribute",
      "outputs": [],
      "stateMutability": "nonpayable",
      "type": "function"
    },
    {
      "inputs": [
        {
          "internalType": "string",
          "name": "name",
          "type": "string"
        },
        {
          "internalType": "bytes32",
          "name": "msgh1",
          "type": "bytes32"
        },
        {
          "internalType": "uint8",
          "name": "v",
          "type": "uint8"
        },
        {
          "internalType": "bytes32",
          "name": "r",
          "type": "bytes32"
        },
        {
          "internalType": "bytes32",
          "name": "s",
          "type": "bytes32"
        },
        {
          "internalType": "bytes32",
          "name": "msgh2",
          "type": "bytes32"
        }
      ],
      "name": "requestSharesFromHolders",
      "outputs": [],
      "stateMutability": "nonpayable",
      "type": "function"
    },
    {
      "inputs": [
        {
          "internalType": "address",
          "name": "requestingParty",
          "type": "address"
        }
      ],
      "name": "setRequester",
      "outputs": [],
      "stateMutability": "nonpayable",
      "type": "function"
    },
    {
      "inputs": [],
      "name": "returnMyVaultHash",
      "outputs": [
        {
          "internalType": "string",
          "name": "",
          "type": "string"
        }
      ],
      "stateMutability": "view",
      "type": "function"
    },
    {
      "inputs": [
        {
          "internalType": "string",
          "name": "name",
          "type": "string"
        },
        {
          "internalType": "bytes32",
          "name": "msgh1",
          "type": "bytes32"
        },
        {
          "internalType": "uint8",
          "name": "v",
          "type": "uint8"
        },
        {
          "internalType": "bytes32",
          "name": "r",
          "type": "bytes32"
        },
        {
          "internalType": "bytes32",
          "name": "s",
          "type": "bytes32"
        },
        {
          "internalType": "bytes32",
          "name": "msgh2",
          "type": "bytes32"
        }
      ],
      "name": "requestVaultHashOfSecretOwner",
      "outputs": [
        {
          "internalType": "string",
          "name": "",
          "type": "string"
        }
      ],
      "stateMutability": "view",
      "type": "function"
    },
    {
      "inputs": [
        {
          "internalType": "string",
          "name": "share",
          "type": "string"
        }
      ],
      "name": "saveToRegeneratedShares",
      "outputs": [],
      "stateMutability": "nonpayable",
      "type": "function"
    },
    {
      "inputs": [
        {
          "internalType": "address",
          "name": "shareHolder",
          "type": "address"
        }
      ],
      "name": "saveToReleaseAcceptedShareHolders",
      "outputs": [],
      "stateMutability": "nonpayable",
      "type": "function"
    },
    {
      "inputs": [],
      "name": "cleanReleaseAcceptedShareHolders",
      "outputs": [],
      "stateMutability": "nonpayable",
      "type": "function"
    },
    {
      "inputs": [],
      "name": "regenerate",
      "outputs": [
        {
          "internalType": "string[]",
          "name": "",
          "type": "string[]"
        }
      ],
      "stateMutability": "view",
      "type": "function"
    },
    {
      "inputs": [
        {
          "internalType": "string",
          "name": "name",
          "type": "string"
        }
      ],
      "name": "getEmailOfUser",
      "outputs": [
        {
          "internalType": "string",
          "name": "",
          "type": "string"
        }
      ],
      "stateMutability": "view",
      "type": "function"
    }
  ],
  "bytecode": "0x60e06040523480156200001157600080fd5b506040516200552d3803806200552d83398181016040528101906200003791906200018b565b3373ffffffffffffffffffffffffffffffffffffffff1660808173ffffffffffffffffffffffffffffffffffffffff16815250508073ffffffffffffffffffffffffffffffffffffffff1660c08173ffffffffffffffffffffffffffffffffffffffff16815250503073ffffffffffffffffffffffffffffffffffffffff1660a08173ffffffffffffffffffffffffffffffffffffffff16815250506040518060400160405280600c81526020017f4e4f44455f435245415445440000000000000000000000000000000000000000815250600a908162000119919062000437565b50506200051e565b600080fd5b600073ffffffffffffffffffffffffffffffffffffffff82169050919050565b6000620001538262000126565b9050919050565b620001658162000146565b81146200017157600080fd5b50565b60008151905062000185816200015a565b92915050565b600060208284031215620001a457620001a362000121565b5b6000620001b48482850162000174565b91505092915050565b600081519050919050565b7f4e487b7100000000000000000000000000000000000000000000000000000000600052604160045260246000fd5b7f4e487b7100000000000000000000000000000000000000000000000000000000600052602260045260246000fd5b600060028204905060018216806200023f57607f821691505b602082108103620002555762000254620001f7565b5b50919050565b60008190508160005260206000209050919050565b60006020601f8301049050919050565b600082821b905092915050565b600060088302620002bf7fffffffffffffffffffffffffffffffffffffffffffffffffffffffffffffffff8262000280565b620002cb868362000280565b95508019841693508086168417925050509392505050565b6000819050919050565b6000819050919050565b600062000318620003126200030c84620002e3565b620002ed565b620002e3565b9050919050565b6000819050919050565b6200033483620002f7565b6200034c62000343826200031f565b8484546200028d565b825550505050565b600090565b6200036362000354565b6200037081848462000329565b505050565b5b8181101562000398576200038c60008262000359565b60018101905062000376565b5050565b601f821115620003e757620003b1816200025b565b620003bc8462000270565b81016020851015620003cc578190505b620003e4620003db8562000270565b83018262000375565b50505b505050565b600082821c905092915050565b60006200040c60001984600802620003ec565b1980831691505092915050565b6000620004278383620003f9565b9150826002028217905092915050565b6200044282620001bd565b67ffffffffffffffff8111156200045e576200045d620001c8565b5b6200046a825462000226565b620004778282856200039c565b600060209050601f831160018114620004af57600084156200049a578287015190505b620004a6858262000419565b86555062000516565b601f198416620004bf866200025b565b60005b82811015620004e957848901518255600182019150602085019450602081019050620004c2565b8683101562000509578489015162000505601f891682620003f9565b8355505b6001600288020188555050505b505050505050565b60805160a05160c051614e8f6200069e600039600081816107a101528181610928015281816109f201528181610ea6015281816110a80152818161116d0152818161147601528181611fa201528181612164015281816122a9015281816124840152818161299f01528181612ca801528181612d3501528181612eef01528181613319015261358701526000612f4d015260008181610711015281816108980152818161096401528181610a9501528181610bfc01528181610fd1015281816110e4015281816111a90152818161137a0152818161152f015281816116e0015281816119ed01528181611c6601528181611d6601528181611f14015281816120d6015281816121a0015281816122190152818161234e015281816123f6015281816124c0015281816125390152818161265701528181612792015281816129db01528181612b0701528181612e6101528181612f2c015281816131ac0152818161335501528181613426015281816135c401526136480152614e8f6000f3fe608060405234801561001057600080fd5b50600436106102525760003560e01c806357a4607911610146578063b9657d13116100c3578063d65ec85511610087578063d65ec85514610685578063d849e94f146106a1578063dab0177e146106ab578063dbe4418f146106b5578063e4c3daf7146106d3578063ecd63043146106ef57610252565b8063b9657d13146105f7578063c069796514610613578063c0befa531461062f578063c4382fa61461064b578063c692f7381461066957610252565b80639018c8181161010a5780639018c81814610555578063983080e514610571578063a0cd9ce8146105a1578063aa8f3075146105bd578063b9020283146105d957610252565b806357a46079146104ad57806358ce3740146104cb5780638477d9f3146104e95780638b5f6b61146105075780638bf1799f1461053757610252565b8063227a30c5116101d4578063375881de11610198578063375881de1461041f5780633e83fe361461043b5780634a9ae94a146104595780634cc822151461047557806350e781911461049157610252565b8063227a30c5146103a357806322cc8155146103bf57806324164bc9146103c9578063282b065a146103d35780632d685812146103ef57610252565b806312958f1c1161021b57806312958f1c1461030f57806317377f681461032d5780631965a2851461034b57806320a2f73514610367578063223668441461038557610252565b806252c63214610257578063026412c614610275578063042c1c58146102a55780630d2baaa1146102c15780630f64dd1b146102df575b600080fd5b61025f61070d565b60405161026c91906138e9565b60405180910390f35b61028f600480360381019061028a9190613a65565b610848565b60405161029c9190613ac9565b60405180910390f35b6102bf60048036038101906102ba9190613a65565b610881565b005b6102c9610894565b6040516102d691906138e9565b60405180910390f35b6102f960048036038101906102f49190613a65565b6109ee565b6040516103069190613ac9565b60405180910390f35b610317610a91565b6040516103249190613b63565b60405180910390f35b610335610bb1565b6040516103429190613c91565b60405180910390f35b61036560048036038101906103609190613cdf565b610d5f565b005b61036f610e14565b60405161037c91906138e9565b60405180910390f35b61038d610ea2565b60405161039a9190613ac9565b60405180910390f35b6103bd60048036038101906103b89190613cdf565b610f44565b005b6103c7610fcf565b005b6103d1611378565b005b6103ed60048036038101906103e89190613a65565b611416565b005b61040960048036038101906104049190613d7b565b611429565b6040516104169190613b63565b60405180910390f35b61043960048036038101906104349190613cdf565b61152d565b005b6104436116dc565b6040516104509190613c91565b60405180910390f35b610473600480360381019061046e9190613e24565b611843565b005b61048f600480360381019061048a9190613eb6565b6118f7565b005b6104ab60048036038101906104a69190613f21565b6119eb565b005b6104b5611b6b565b6040516104c29190613b63565b60405180910390f35b6104d3611d62565b6040516104e09190613b63565b60405180910390f35b6104f1611e82565b6040516104fe91906138e9565b60405180910390f35b610521600480360381019061051c9190613a65565b611f10565b60405161052e9190613b63565b60405180910390f35b61053f612046565b60405161054c9190613b63565b60405180910390f35b61056f600480360381019061056a9190613cdf565b6120d4565b005b61058b60048036038101906105869190613cdf565b612215565b6040516105989190613f5d565b60405180910390f35b6105bb60048036038101906105b6919061405e565b61234c565b005b6105d760048036038101906105d29190613cdf565b6123f4565b005b6105e1612535565b6040516105ee9190613b63565b60405180910390f35b610611600480360381019061060c9190613f21565b612655565b005b61062d600480360381019061062891906140a7565b612790565b005b61064960048036038101906106449190613cdf565b612b05565b005b610653612dcd565b6040516106609190613b63565b60405180910390f35b610683600480360381019061067e9190613a65565b612e5f565b005b61069f600480360381019061069a9190613a65565b612fcf565b005b6106a961304e565b005b6106b36131aa565b005b6106bd6133db565b6040516106ca91906138e9565b60405180910390f35b6106ed60048036038101906106e89190613d7b565b61353e565b005b6106f7613644565b6040516107049190613ac9565b60405180910390f35b60607f000000000000000000000000000000000000000000000000000000000000000073ffffffffffffffffffffffffffffffffffffffff163373ffffffffffffffffffffffffffffffffffffffff161461079d576040517f08c379a00000000000000000000000000000000000000000000000000000000081526004016107949061416b565b60405180910390fd5b60007f000000000000000000000000000000000000000000000000000000000000000073ffffffffffffffffffffffffffffffffffffffff1663c588234460086040518263ffffffff1660e01b81526004016107f99190614277565b600060405180830381865afa158015610816573d6000803e3d6000fd5b505050506040513d6000823e3d601f19601f8201168201806040525081019061083f9190614371565b90508091505090565b6000600b60405161085991906144bd565b6040518091039020828051906020012003610877576001905061087c565b600090505b919050565b80600d90816108909190614680565b5050565b60607f000000000000000000000000000000000000000000000000000000000000000073ffffffffffffffffffffffffffffffffffffffff163373ffffffffffffffffffffffffffffffffffffffff1614610924576040517f08c379a000000000000000000000000000000000000000000000000000000000815260040161091b9061416b565b60405180910390fd5b60007f000000000000000000000000000000000000000000000000000000000000000073ffffffffffffffffffffffffffffffffffffffff166399f8b09f7f00000000000000000000000000000000000000000000000000000000000000006040518263ffffffff1660e01b815260040161099f9190613f5d565b600060405180830381865afa1580156109bc573d6000803e3d6000fd5b505050506040513d6000823e3d601f19601f820116820180604052508101906109e59190614371565b90508091505090565b60007f000000000000000000000000000000000000000000000000000000000000000073ffffffffffffffffffffffffffffffffffffffff16630d85d839836040518263ffffffff1660e01b8152600401610a499190613b63565b602060405180830381865afa158015610a66573d6000803e3d6000fd5b505050506040513d601f19601f82011682018060405250810190610a8a919061477e565b9050919050565b60607f000000000000000000000000000000000000000000000000000000000000000073ffffffffffffffffffffffffffffffffffffffff163373ffffffffffffffffffffffffffffffffffffffff1614610b21576040517f08c379a0000000000000000000000000000000000000000000000000000000008152600401610b189061416b565b60405180910390fd5b60008054610b2e906143e9565b80601f0160208091040260200160405190810160405280929190818152602001828054610b5a906143e9565b8015610ba75780601f10610b7c57610100808354040283529160200191610ba7565b820191906000526020600020905b815481529060010190602001808311610b8a57829003601f168201915b5050505050905090565b6060610bbb610ea2565b610bfa576040517f08c379a0000000000000000000000000000000000000000000000000000000008152600401610bf19061481d565b60405180910390fd5b7f000000000000000000000000000000000000000000000000000000000000000073ffffffffffffffffffffffffffffffffffffffff163373ffffffffffffffffffffffffffffffffffffffff1614610c88576040517f08c379a0000000000000000000000000000000000000000000000000000000008152600401610c7f9061416b565b60405180910390fd5b6009805480602002602001604051908101604052809291908181526020016000905b82821015610d56578382906000526020600020018054610cc9906143e9565b80601f0160208091040260200160405190810160405280929190818152602001828054610cf5906143e9565b8015610d425780601f10610d1757610100808354040283529160200191610d42565b820191906000526020600020905b815481529060010190602001808311610d2557829003601f168201915b505050505081526020019060010190610caa565b50505050905090565b610d67610ea2565b610da6576040517f08c379a0000000000000000000000000000000000000000000000000000000008152600401610d9d9061481d565b60405180910390fd5b6003819080600181540180825580915050600190039060005260206000200160009091909190916101000a81548173ffffffffffffffffffffffffffffffffffffffff021916908373ffffffffffffffffffffffffffffffffffffffff160217905550610e1161304e565b50565b60606004805480602002602001604051908101604052809291908181526020018280548015610e9857602002820191906000526020600020905b8160009054906101000a900473ffffffffffffffffffffffffffffffffffffffff1673ffffffffffffffffffffffffffffffffffffffff1681526020019060010190808311610e4e575b5050505050905090565b60007f000000000000000000000000000000000000000000000000000000000000000073ffffffffffffffffffffffffffffffffffffffff16630d85d83960006040518263ffffffff1660e01b8152600401610efe91906148c1565b602060405180830381865afa158015610f1b573d6000803e3d6000fd5b505050506040513d601f19601f82011682018060405250810190610f3f919061477e565b905090565b610f4c610ea2565b610f8b576040517f08c379a0000000000000000000000000000000000000000000000000000000008152600401610f829061481d565b60405180910390fd5b80600e60006101000a81548173ffffffffffffffffffffffffffffffffffffffff021916908373ffffffffffffffffffffffffffffffffffffffff16021790555050565b7f000000000000000000000000000000000000000000000000000000000000000073ffffffffffffffffffffffffffffffffffffffff163373ffffffffffffffffffffffffffffffffffffffff161461105d576040517f08c379a00000000000000000000000000000000000000000000000000000000081526004016110549061416b565b60405180910390fd5b611065610ea2565b6110a4576040517f08c379a000000000000000000000000000000000000000000000000000000000815260040161109b9061481d565b60405180910390fd5b60007f000000000000000000000000000000000000000000000000000000000000000073ffffffffffffffffffffffffffffffffffffffff1663d71e80e37f00000000000000000000000000000000000000000000000000000000000000006040518263ffffffff1660e01b815260040161111f9190613f5d565b6000604051808303816000875af115801561113e573d6000803e3d6000fd5b505050506040513d6000823e3d601f19601f820116820180604052508101906111679190614371565b905060007f000000000000000000000000000000000000000000000000000000000000000073ffffffffffffffffffffffffffffffffffffffff16637568708f7f00000000000000000000000000000000000000000000000000000000000000006040518263ffffffff1660e01b81526004016111e49190613f5d565b6000604051808303816000875af1158015611203573d6000803e3d6000fd5b505050506040513d6000823e3d601f19601f8201168201806040525081019061122c9190614371565b905060005b82518110156112d057600083828151811061124f5761124e6148e3565b5b602002602001015190506002819080600181540180825580915050600190039060005260206000200160009091909190916101000a81548173ffffffffffffffffffffffffffffffffffffffff021916908373ffffffffffffffffffffffffffffffffffffffff1602179055505080806112c890614941565b915050611231565b5060005b81518110156113735760008282815181106112f2576112f16148e3565b5b602002602001015190506004819080600181540180825580915050600190039060005260206000200160009091909190916101000a81548173ffffffffffffffffffffffffffffffffffffffff021916908373ffffffffffffffffffffffffffffffffffffffff16021790555050808061136b90614941565b9150506112d4565b505050565b7f000000000000000000000000000000000000000000000000000000000000000073ffffffffffffffffffffffffffffffffffffffff163373ffffffffffffffffffffffffffffffffffffffff1614611406576040517f08c379a00000000000000000000000000000000000000000000000000000000081526004016113fd9061416b565b60405180910390fd5b6003600061141491906136fe565b565b80600c90816114259190614680565b5050565b6060611433610ea2565b611472576040517f08c379a00000000000000000000000000000000000000000000000000000000081526004016114699061481d565b60405180910390fd5b60007f000000000000000000000000000000000000000000000000000000000000000073ffffffffffffffffffffffffffffffffffffffff166380e2412d8989898989896040518763ffffffff1660e01b81526004016114d7969594939291906149a7565b600060405180830381865afa1580156114f4573d6000803e3d6000fd5b505050506040513d6000823e3d601f19601f8201168201806040525081019061151d9190614a7f565b9050809150509695505050505050565b7f000000000000000000000000000000000000000000000000000000000000000073ffffffffffffffffffffffffffffffffffffffff163373ffffffffffffffffffffffffffffffffffffffff16146115bb576040517f08c379a00000000000000000000000000000000000000000000000000000000081526004016115b29061416b565b60405180910390fd5b6115c3610ea2565b611602576040517f08c379a00000000000000000000000000000000000000000000000000000000081526004016115f99061481d565b60405180910390fd5b60005b6008805490508110156116d8578173ffffffffffffffffffffffffffffffffffffffff166008828154811061163d5761163c6148e3565b5b9060005260206000200160009054906101000a900473ffffffffffffffffffffffffffffffffffffffff1673ffffffffffffffffffffffffffffffffffffffff16036116c55760088181548110611697576116966148e3565b5b9060005260206000200160006101000a81549073ffffffffffffffffffffffffffffffffffffffff02191690555b80806116d090614941565b915050611605565b5050565b60607f000000000000000000000000000000000000000000000000000000000000000073ffffffffffffffffffffffffffffffffffffffff163373ffffffffffffffffffffffffffffffffffffffff161461176c576040517f08c379a00000000000000000000000000000000000000000000000000000000081526004016117639061416b565b60405180910390fd5b6005805480602002602001604051908101604052809291908181526020016000905b8282101561183a5783829060005260206000200180546117ad906143e9565b80601f01602080910402602001604051908101604052809291908181526020018280546117d9906143e9565b80156118265780601f106117fb57610100808354040283529160200191611826565b820191906000526020600020905b81548152906001019060200180831161180957829003601f168201915b50505050508152602001906001019061178e565b50505050905090565b6008829080600181540180825580915050600190039060005260206000200160009091909190916101000a81548173ffffffffffffffffffffffffffffffffffffffff021916908373ffffffffffffffffffffffffffffffffffffffff16021790555080600760008473ffffffffffffffffffffffffffffffffffffffff1673ffffffffffffffffffffffffffffffffffffffff16815260200190815260200160002090816118f29190614680565b505050565b60018080805490506119099190614ac8565b8154811061191a576119196148e3565b5b9060005260206000200160009054906101000a900473ffffffffffffffffffffffffffffffffffffffff1660018281548110611959576119586148e3565b5b9060005260206000200160006101000a81548173ffffffffffffffffffffffffffffffffffffffff021916908373ffffffffffffffffffffffffffffffffffffffff16021790555060018054806119b3576119b2614afc565b5b6001900381819060005260206000200160006101000a81549073ffffffffffffffffffffffffffffffffffffffff0219169055905550565b7f000000000000000000000000000000000000000000000000000000000000000073ffffffffffffffffffffffffffffffffffffffff163373ffffffffffffffffffffffffffffffffffffffff1614611a79576040517f08c379a0000000000000000000000000000000000000000000000000000000008152600401611a709061416b565b60405180910390fd5b611a81610ea2565b611ac0576040517f08c379a0000000000000000000000000000000000000000000000000000000008152600401611ab79061481d565b60405180910390fd5b6000805b600180549050811015611b5d578273ffffffffffffffffffffffffffffffffffffffff1660018281548110611afc57611afb6148e3565b5b9060005260206000200160009054906101000a900473ffffffffffffffffffffffffffffffffffffffff1673ffffffffffffffffffffffffffffffffffffffff1603611b4a57809150611b5d565b8080611b5590614941565b915050611ac4565b50611b67816118f7565b5050565b6060611b75610ea2565b611bb4576040517f08c379a0000000000000000000000000000000000000000000000000000000008152600401611bab9061481d565b60405180910390fd5b6040518060400160405280601081526020017f52454144595f544f5f52454c454153450000000000000000000000000000000081525080519060200120600a604051611c0091906144bd565b604051809103902003611d4c57600e60009054906101000a900473ffffffffffffffffffffffffffffffffffffffff1673ffffffffffffffffffffffffffffffffffffffff163373ffffffffffffffffffffffffffffffffffffffff161480611cb457507f000000000000000000000000000000000000000000000000000000000000000073ffffffffffffffffffffffffffffffffffffffff163373ffffffffffffffffffffffffffffffffffffffff16145b15611d4b57600d8054611cc6906143e9565b80601f0160208091040260200160405190810160405280929190818152602001828054611cf2906143e9565b8015611d3f5780601f10611d1457610100808354040283529160200191611d3f565b820191906000526020600020905b815481529060010190602001808311611d2257829003601f168201915b50505050509050611d5f565b5b6040518060200160405280600081525090505b90565b60607f000000000000000000000000000000000000000000000000000000000000000073ffffffffffffffffffffffffffffffffffffffff163373ffffffffffffffffffffffffffffffffffffffff1614611df2576040517f08c379a0000000000000000000000000000000000000000000000000000000008152600401611de99061416b565b60405180910390fd5b600a8054611dff906143e9565b80601f0160208091040260200160405190810160405280929190818152602001828054611e2b906143e9565b8015611e785780601f10611e4d57610100808354040283529160200191611e78565b820191906000526020600020905b815481529060010190602001808311611e5b57829003601f168201915b5050505050905090565b60606002805480602002602001604051908101604052809291908181526020018280548015611f0657602002820191906000526020600020905b8160009054906101000a900473ffffffffffffffffffffffffffffffffffffffff1673ffffffffffffffffffffffffffffffffffffffff1681526020019060010190808311611ebc575b5050505050905090565b60607f000000000000000000000000000000000000000000000000000000000000000073ffffffffffffffffffffffffffffffffffffffff163373ffffffffffffffffffffffffffffffffffffffff1614611fa0576040517f08c379a0000000000000000000000000000000000000000000000000000000008152600401611f979061416b565b60405180910390fd5b7f000000000000000000000000000000000000000000000000000000000000000073ffffffffffffffffffffffffffffffffffffffff166367e37f70836040518263ffffffff1660e01b8152600401611ff99190613b63565b600060405180830381865afa158015612016573d6000803e3d6000fd5b505050506040513d6000823e3d601f19601f8201168201806040525081019061203f9190614a7f565b9050919050565b600a8054612053906143e9565b80601f016020809104026020016040519081016040528092919081815260200182805461207f906143e9565b80156120cc5780601f106120a1576101008083540402835291602001916120cc565b820191906000526020600020905b8154815290600101906020018083116120af57829003601f168201915b505050505081565b7f000000000000000000000000000000000000000000000000000000000000000073ffffffffffffffffffffffffffffffffffffffff163373ffffffffffffffffffffffffffffffffffffffff1614612162576040517f08c379a00000000000000000000000000000000000000000000000000000000081526004016121599061416b565b60405180910390fd5b7f000000000000000000000000000000000000000000000000000000000000000073ffffffffffffffffffffffffffffffffffffffff1663bc9d62717f00000000000000000000000000000000000000000000000000000000000000008360016040518463ffffffff1660e01b81526004016121e093929190614b2b565b600060405180830381600087803b1580156121fa57600080fd5b505af115801561220e573d6000803e3d6000fd5b5050505050565b60007f000000000000000000000000000000000000000000000000000000000000000073ffffffffffffffffffffffffffffffffffffffff163373ffffffffffffffffffffffffffffffffffffffff16146122a5576040517f08c379a000000000000000000000000000000000000000000000000000000000815260040161229c9061416b565b60405180910390fd5b60007f000000000000000000000000000000000000000000000000000000000000000073ffffffffffffffffffffffffffffffffffffffff1663a5311bcf846040518263ffffffff1660e01b81526004016123009190613f5d565b602060405180830381865afa15801561231d573d6000803e3d6000fd5b505050506040513d601f19601f820116820180604052508101906123419190614b62565b905080915050919050565b7f000000000000000000000000000000000000000000000000000000000000000073ffffffffffffffffffffffffffffffffffffffff163373ffffffffffffffffffffffffffffffffffffffff16146123da576040517f08c379a00000000000000000000000000000000000000000000000000000000081526004016123d19061416b565b60405180910390fd5b80600590805190602001906123f092919061371f565b5050565b7f000000000000000000000000000000000000000000000000000000000000000073ffffffffffffffffffffffffffffffffffffffff163373ffffffffffffffffffffffffffffffffffffffff1614612482576040517f08c379a00000000000000000000000000000000000000000000000000000000081526004016124799061416b565b60405180910390fd5b7f000000000000000000000000000000000000000000000000000000000000000073ffffffffffffffffffffffffffffffffffffffff1663bc9d62717f00000000000000000000000000000000000000000000000000000000000000008360006040518463ffffffff1660e01b815260040161250093929190614b2b565b600060405180830381600087803b15801561251a57600080fd5b505af115801561252e573d6000803e3d6000fd5b5050505050565b60607f000000000000000000000000000000000000000000000000000000000000000073ffffffffffffffffffffffffffffffffffffffff163373ffffffffffffffffffffffffffffffffffffffff16146125c5576040517f08c379a00000000000000000000000000000000000000000000000000000000081526004016125bc9061416b565b60405180910390fd5b600b80546125d2906143e9565b80601f01602080910402602001604051908101604052809291908181526020018280546125fe906143e9565b801561264b5780601f106126205761010080835404028352916020019161264b565b820191906000526020600020905b81548152906001019060200180831161262e57829003601f168201915b5050505050905090565b7f000000000000000000000000000000000000000000000000000000000000000073ffffffffffffffffffffffffffffffffffffffff163373ffffffffffffffffffffffffffffffffffffffff16146126e3576040517f08c379a00000000000000000000000000000000000000000000000000000000081526004016126da9061416b565b60405180910390fd5b6126eb610ea2565b61272a576040517f08c379a00000000000000000000000000000000000000000000000000000000081526004016127219061481d565b60405180910390fd5b6001819080600181540180825580915050600190039060005260206000200160009091909190916101000a81548173ffffffffffffffffffffffffffffffffffffffff021916908373ffffffffffffffffffffffffffffffffffffffff16021790555050565b7f000000000000000000000000000000000000000000000000000000000000000073ffffffffffffffffffffffffffffffffffffffff163373ffffffffffffffffffffffffffffffffffffffff161461281e576040517f08c379a00000000000000000000000000000000000000000000000000000000081526004016128159061416b565b60405180910390fd5b612826610ea2565b612865576040517f08c379a000000000000000000000000000000000000000000000000000000000815260040161285c9061481d565b60405180910390fd5b61286e82611416565b61287781610881565b61287f610fcf565b612887611378565b60028054905060058054905011156128d4576040517f08c379a00000000000000000000000000000000000000000000000000000000081526004016128cb90614bdb565b60405180910390fd5b60028054905060058054905011612abc5760005b600580549050811015612aba5760058181548110612909576129086148e3565b5b90600052602060002001600660006002848154811061292b5761292a6148e3565b5b9060005260206000200160009054906101000a900473ffffffffffffffffffffffffffffffffffffffff1673ffffffffffffffffffffffffffffffffffffffff1673ffffffffffffffffffffffffffffffffffffffff168152602001908152602001600020908161299c9190614c26565b507f000000000000000000000000000000000000000000000000000000000000000073ffffffffffffffffffffffffffffffffffffffff1663cc2f22f17f000000000000000000000000000000000000000000000000000000000000000060028481548110612a0e57612a0d6148e3565b5b9060005260206000200160009054906101000a900473ffffffffffffffffffffffffffffffffffffffff1660058581548110612a4d57612a4c6148e3565b5b906000526020600020016040518463ffffffff1660e01b8152600401612a7593929190614d0e565b600060405180830381600087803b158015612a8f57600080fd5b505af1158015612aa3573d6000803e3d6000fd5b505050508080612ab290614941565b9150506128e8565b505b6040518060400160405280601281526020017f5348415245535f44495354524942555445440000000000000000000000000000815250600a9081612b009190614680565b505050565b7f000000000000000000000000000000000000000000000000000000000000000073ffffffffffffffffffffffffffffffffffffffff163373ffffffffffffffffffffffffffffffffffffffff1614612b93576040517f08c379a0000000000000000000000000000000000000000000000000000000008152600401612b8a9061416b565b60405180910390fd5b612b9b610ea2565b612bda576040517f08c379a0000000000000000000000000000000000000000000000000000000008152600401612bd19061481d565b60405180910390fd5b6000600760008373ffffffffffffffffffffffffffffffffffffffff1673ffffffffffffffffffffffffffffffffffffffff1681526020019081526020016000208054612c26906143e9565b80601f0160208091040260200160405190810160405280929190818152602001828054612c52906143e9565b8015612c9f5780601f10612c7457610100808354040283529160200191612c9f565b820191906000526020600020905b815481529060010190602001808311612c8257829003601f168201915b505050505090507f000000000000000000000000000000000000000000000000000000000000000073ffffffffffffffffffffffffffffffffffffffff16637cbfc58f83836040518363ffffffff1660e01b8152600401612d01929190614d4c565b600060405180830381600087803b158015612d1b57600080fd5b505af1158015612d2f573d6000803e3d6000fd5b505050507f000000000000000000000000000000000000000000000000000000000000000073ffffffffffffffffffffffffffffffffffffffff1663c6244a2783336040518363ffffffff1660e01b8152600401612d8e929190614d7c565b600060405180830381600087803b158015612da857600080fd5b505af1158015612dbc573d6000803e3d6000fd5b50505050612dc98261152d565b5050565b6060600c8054612ddc906143e9565b80601f0160208091040260200160405190810160405280929190818152602001828054612e08906143e9565b8015612e555780601f10612e2a57610100808354040283529160200191612e55565b820191906000526020600020905b815481529060010190602001808311612e3857829003601f168201915b5050505050905090565b7f000000000000000000000000000000000000000000000000000000000000000073ffffffffffffffffffffffffffffffffffffffff163373ffffffffffffffffffffffffffffffffffffffff1614612eed576040517f08c379a0000000000000000000000000000000000000000000000000000000008152600401612ee49061416b565b60405180910390fd5b7f000000000000000000000000000000000000000000000000000000000000000073ffffffffffffffffffffffffffffffffffffffff16637915c069827f00000000000000000000000000000000000000000000000000000000000000007f00000000000000000000000000000000000000000000000000000000000000006040518463ffffffff1660e01b8152600401612f8a93929190614da5565b600060405180830381600087803b158015612fa457600080fd5b505af1158015612fb8573d6000803e3d6000fd5b505050508060009081612fcb9190614680565b5050565b612fd7610ea2565b613016576040517f08c379a000000000000000000000000000000000000000000000000000000000815260040161300d9061481d565b60405180910390fd5b60098190806001815401808255809150506001900390600052602060002001600090919091909150908161304a9190614680565b5050565b6040518060400160405280601581526020017f5348415245484f4c4445525f524551554553544544000000000000000000000081525080519060200120600a60405161309a91906144bd565b6040518091039020036130fb576130af613644565b156130fa576040518060400160405280601481526020017f5348415245484f4c4445525f4143434550544544000000000000000000000000815250600a90816130f89190614680565b505b5b6040518060400160405280601281526020017f5348415245535f4449535452494255544544000000000000000000000000000081525080519060200120600a60405161314791906144bd565b6040518091039020036131a8576002600380549050106131a7576040518060400160405280601081526020017f52454144595f544f5f52454c4541534500000000000000000000000000000000815250600a90816131a59190614680565b505b5b565b7f000000000000000000000000000000000000000000000000000000000000000073ffffffffffffffffffffffffffffffffffffffff163373ffffffffffffffffffffffffffffffffffffffff1614613238576040517f08c379a000000000000000000000000000000000000000000000000000000000815260040161322f9061416b565b60405180910390fd5b613240610ea2565b61327f576040517f08c379a00000000000000000000000000000000000000000000000000000000081526004016132769061481d565b60405180910390fd5b6040518060400160405280601581526020017f5348415245484f4c4445525f5245515545535445440000000000000000000000815250600a90816132c39190614680565b5060005b6001805490508110156133d8576000600182815481106132ea576132e96148e3565b5b9060005260206000200160009054906101000a900473ffffffffffffffffffffffffffffffffffffffff1690507f000000000000000000000000000000000000000000000000000000000000000073ffffffffffffffffffffffffffffffffffffffff16636e8548bb7f0000000000000000000000000000000000000000000000000000000000000000836040518363ffffffff1660e01b8152600401613392929190614d7c565b600060405180830381600087803b1580156133ac57600080fd5b505af11580156133c0573d6000803e3d6000fd5b505050505080806133d090614941565b9150506132c7565b50565b60606133e5610ea2565b613424576040517f08c379a000000000000000000000000000000000000000000000000000000000815260040161341b9061481d565b60405180910390fd5b7f000000000000000000000000000000000000000000000000000000000000000073ffffffffffffffffffffffffffffffffffffffff163373ffffffffffffffffffffffffffffffffffffffff16146134b2576040517f08c379a00000000000000000000000000000000000000000000000000000000081526004016134a99061416b565b60405180910390fd5b600180548060200260200160405190810160405280929190818152602001828054801561353457602002820191906000526020600020905b8160009054906101000a900473ffffffffffffffffffffffffffffffffffffffff1673ffffffffffffffffffffffffffffffffffffffff16815260200190600101908083116134ea575b5050505050905090565b613546610ea2565b613585576040517f08c379a000000000000000000000000000000000000000000000000000000000815260040161357c9061481d565b60405180910390fd5b7f000000000000000000000000000000000000000000000000000000000000000073ffffffffffffffffffffffffffffffffffffffff166356da5eea877f000000000000000000000000000000000000000000000000000000000000000088888888886040518863ffffffff1660e01b815260040161360a9796959493929190614de3565b600060405180830381600087803b15801561362457600080fd5b505af1158015613638573d6000803e3d6000fd5b50505050505050505050565b60007f000000000000000000000000000000000000000000000000000000000000000073ffffffffffffffffffffffffffffffffffffffff163373ffffffffffffffffffffffffffffffffffffffff16146136d4576040517f08c379a00000000000000000000000000000000000000000000000000000000081526004016136cb9061416b565b60405180910390fd5b6136dc610fcf565b600180549050600280549050106136f657600190506136fb565b600090505b90565b508054600082559060005260206000209081019061371c9190613778565b50565b828054828255906000526020600020908101928215613767579160200282015b828111156137665782518290816137569190614680565b509160200191906001019061373f565b5b5090506137749190613795565b5090565b5b80821115613791576000816000905550600101613779565b5090565b5b808211156137b557600081816137ac91906137b9565b50600101613796565b5090565b5080546137c5906143e9565b6000825580601f106137d757506137f6565b601f0160209004906000526020600020908101906137f59190613778565b5b50565b600081519050919050565b600082825260208201905092915050565b6000819050602082019050919050565b600073ffffffffffffffffffffffffffffffffffffffff82169050919050565b600061385082613825565b9050919050565b61386081613845565b82525050565b60006138728383613857565b60208301905092915050565b6000602082019050919050565b6000613896826137f9565b6138a08185613804565b93506138ab83613815565b8060005b838110156138dc5781516138c38882613866565b97506138ce8361387e565b9250506001810190506138af565b5085935050505092915050565b60006020820190508181036000830152613903818461388b565b905092915050565b6000604051905090565b600080fd5b600080fd5b600080fd5b600080fd5b6000601f19601f8301169050919050565b7f4e487b7100000000000000000000000000000000000000000000000000000000600052604160045260246000fd5b61397282613929565b810181811067ffffffffffffffff821117156139915761399061393a565b5b80604052505050565b60006139a461390b565b90506139b08282613969565b919050565b600067ffffffffffffffff8211156139d0576139cf61393a565b5b6139d982613929565b9050602081019050919050565b82818337600083830152505050565b6000613a08613a03846139b5565b61399a565b905082815260208101848484011115613a2457613a23613924565b5b613a2f8482856139e6565b509392505050565b600082601f830112613a4c57613a4b61391f565b5b8135613a5c8482602086016139f5565b91505092915050565b600060208284031215613a7b57613a7a613915565b5b600082013567ffffffffffffffff811115613a9957613a9861391a565b5b613aa584828501613a37565b91505092915050565b60008115159050919050565b613ac381613aae565b82525050565b6000602082019050613ade6000830184613aba565b92915050565b600081519050919050565b600082825260208201905092915050565b60005b83811015613b1e578082015181840152602081019050613b03565b60008484015250505050565b6000613b3582613ae4565b613b3f8185613aef565b9350613b4f818560208601613b00565b613b5881613929565b840191505092915050565b60006020820190508181036000830152613b7d8184613b2a565b905092915050565b600081519050919050565b600082825260208201905092915050565b6000819050602082019050919050565b600082825260208201905092915050565b6000613bcd82613ae4565b613bd78185613bb1565b9350613be7818560208601613b00565b613bf081613929565b840191505092915050565b6000613c078383613bc2565b905092915050565b6000602082019050919050565b6000613c2782613b85565b613c318185613b90565b935083602082028501613c4385613ba1565b8060005b85811015613c7f5784840389528151613c608582613bfb565b9450613c6b83613c0f565b925060208a01995050600181019050613c47565b50829750879550505050505092915050565b60006020820190508181036000830152613cab8184613c1c565b905092915050565b613cbc81613845565b8114613cc757600080fd5b50565b600081359050613cd981613cb3565b92915050565b600060208284031215613cf557613cf4613915565b5b6000613d0384828501613cca565b91505092915050565b6000819050919050565b613d1f81613d0c565b8114613d2a57600080fd5b50565b600081359050613d3c81613d16565b92915050565b600060ff82169050919050565b613d5881613d42565b8114613d6357600080fd5b50565b600081359050613d7581613d4f565b92915050565b60008060008060008060c08789031215613d9857613d97613915565b5b600087013567ffffffffffffffff811115613db657613db561391a565b5b613dc289828a01613a37565b9650506020613dd389828a01613d2d565b9550506040613de489828a01613d66565b9450506060613df589828a01613d2d565b9350506080613e0689828a01613d2d565b92505060a0613e1789828a01613d2d565b9150509295509295509295565b60008060408385031215613e3b57613e3a613915565b5b6000613e4985828601613cca565b925050602083013567ffffffffffffffff811115613e6a57613e6961391a565b5b613e7685828601613a37565b9150509250929050565b6000819050919050565b613e9381613e80565b8114613e9e57600080fd5b50565b600081359050613eb081613e8a565b92915050565b600060208284031215613ecc57613ecb613915565b5b6000613eda84828501613ea1565b91505092915050565b6000613eee82613825565b9050919050565b613efe81613ee3565b8114613f0957600080fd5b50565b600081359050613f1b81613ef5565b92915050565b600060208284031215613f3757613f36613915565b5b6000613f4584828501613f0c565b91505092915050565b613f5781613845565b82525050565b6000602082019050613f726000830184613f4e565b92915050565b600067ffffffffffffffff821115613f9357613f9261393a565b5b602082029050602081019050919050565b600080fd5b6000613fbc613fb784613f78565b61399a565b90508083825260208201905060208402830185811115613fdf57613fde613fa4565b5b835b8181101561402657803567ffffffffffffffff8111156140045761400361391f565b5b8086016140118982613a37565b85526020850194505050602081019050613fe1565b5050509392505050565b600082601f8301126140455761404461391f565b5b8135614055848260208601613fa9565b91505092915050565b60006020828403121561407457614073613915565b5b600082013567ffffffffffffffff8111156140925761409161391a565b5b61409e84828501614030565b91505092915050565b600080604083850312156140be576140bd613915565b5b600083013567ffffffffffffffff8111156140dc576140db61391a565b5b6140e885828601613a37565b925050602083013567ffffffffffffffff8111156141095761410861391a565b5b61411585828601613a37565b9150509250929050565b7f4f6e6c79206f776e657220686173207468652070726976696c65676500000000600082015250565b6000614155601c83613aef565b91506141608261411f565b602082019050919050565b6000602082019050818103600083015261418481614148565b9050919050565b600081549050919050565b60008190508160005260206000209050919050565b60008160001c9050919050565b600073ffffffffffffffffffffffffffffffffffffffff82169050919050565b60006141eb6141e6836141ab565b6141b8565b9050919050565b60006141fe82546141d8565b9050919050565b6000600182019050919050565b600061421d8261418b565b6142278185613804565b935061423283614196565b8060005b8381101561426a57614247826141f2565b6142518882613866565b975061425c83614205565b925050600181019050614236565b5085935050505092915050565b600060208201905081810360008301526142918184614212565b905092915050565b600067ffffffffffffffff8211156142b4576142b361393a565b5b602082029050602081019050919050565b6000815190506142d481613cb3565b92915050565b60006142ed6142e884614299565b61399a565b905080838252602082019050602084028301858111156143105761430f613fa4565b5b835b81811015614339578061432588826142c5565b845260208401935050602081019050614312565b5050509392505050565b600082601f8301126143585761435761391f565b5b81516143688482602086016142da565b91505092915050565b60006020828403121561438757614386613915565b5b600082015167ffffffffffffffff8111156143a5576143a461391a565b5b6143b184828501614343565b91505092915050565b7f4e487b7100000000000000000000000000000000000000000000000000000000600052602260045260246000fd5b6000600282049050600182168061440157607f821691505b602082108103614414576144136143ba565b5b50919050565b600081905092915050565b60008190508160005260206000209050919050565b60008154614447816143e9565b614451818661441a565b9450600182166000811461446c5760018114614481576144b4565b60ff19831686528115158202860193506144b4565b61448a85614425565b60005b838110156144ac5781548189015260018201915060208101905061448d565b838801955050505b50505092915050565b60006144c9828461443a565b915081905092915050565b60008190508160005260206000209050919050565b60006020601f8301049050919050565b600082821b905092915050565b6000600883026145367fffffffffffffffffffffffffffffffffffffffffffffffffffffffffffffffff826144f9565b61454086836144f9565b95508019841693508086168417925050509392505050565b6000819050919050565b600061457d61457861457384613e80565b614558565b613e80565b9050919050565b6000819050919050565b61459783614562565b6145ab6145a382614584565b848454614506565b825550505050565b600090565b6145c06145b3565b6145cb81848461458e565b505050565b5b818110156145ef576145e46000826145b8565b6001810190506145d1565b5050565b601f82111561463457614605816144d4565b61460e846144e9565b8101602085101561461d578190505b614631614629856144e9565b8301826145d0565b50505b505050565b600082821c905092915050565b600061465760001984600802614639565b1980831691505092915050565b60006146708383614646565b9150826002028217905092915050565b61468982613ae4565b67ffffffffffffffff8111156146a2576146a161393a565b5b6146ac82546143e9565b6146b78282856145f3565b600060209050601f8311600181146146ea57600084156146d8578287015190505b6146e28582614664565b86555061474a565b601f1984166146f8866144d4565b60005b82811015614720578489015182556001820191506020850194506020810190506146fb565b8683101561473d5784890151614739601f891682614646565b8355505b6001600288020188555050505b505050505050565b61475b81613aae565b811461476657600080fd5b50565b60008151905061477881614752565b92915050565b60006020828403121561479457614793613915565b5b60006147a284828501614769565b91505092915050565b7f4f776e65722068617320746f20726567697374657220746f207075626c69632060008201527f636f6e7472616374000000000000000000000000000000000000000000000000602082015250565b6000614807602883613aef565b9150614812826147ab565b604082019050919050565b60006020820190508181036000830152614836816147fa565b9050919050565b6000815461484a816143e9565b6148548186613aef565b9450600182166000811461486f5760018114614885576148b8565b60ff1983168652811515602002860193506148b8565b61488e856144d4565b60005b838110156148b057815481890152600182019150602081019050614891565b808801955050505b50505092915050565b600060208201905081810360008301526148db818461483d565b905092915050565b7f4e487b7100000000000000000000000000000000000000000000000000000000600052603260045260246000fd5b7f4e487b7100000000000000000000000000000000000000000000000000000000600052601160045260246000fd5b600061494c82613e80565b91507fffffffffffffffffffffffffffffffffffffffffffffffffffffffffffffffff820361497e5761497d614912565b5b600182019050919050565b61499281613d0c565b82525050565b6149a181613d42565b82525050565b600060c08201905081810360008301526149c18189613b2a565b90506149d06020830188614989565b6149dd6040830187614998565b6149ea6060830186614989565b6149f76080830185614989565b614a0460a0830184614989565b979650505050505050565b6000614a22614a1d846139b5565b61399a565b905082815260208101848484011115614a3e57614a3d613924565b5b614a49848285613b00565b509392505050565b600082601f830112614a6657614a6561391f565b5b8151614a76848260208601614a0f565b91505092915050565b600060208284031215614a9557614a94613915565b5b600082015167ffffffffffffffff811115614ab357614ab261391a565b5b614abf84828501614a51565b91505092915050565b6000614ad382613e80565b9150614ade83613e80565b9250828203905081811115614af657614af5614912565b5b92915050565b7f4e487b7100000000000000000000000000000000000000000000000000000000600052603160045260246000fd5b6000606082019050614b406000830186613f4e565b614b4d6020830185613f4e565b614b5a6040830184613aba565b949350505050565b600060208284031215614b7857614b77613915565b5b6000614b86848285016142c5565b91505092915050565b7f4e6f7420656e6f75676820736861726520686f6c646572732121000000000000600082015250565b6000614bc5601a83613aef565b9150614bd082614b8f565b602082019050919050565b60006020820190508181036000830152614bf481614bb8565b9050919050565b600081549050614c0a816143e9565b9050919050565b60008190508160005260206000209050919050565b818103614c34575050614d0c565b614c3d82614bfb565b67ffffffffffffffff811115614c5657614c5561393a565b5b614c6082546143e9565b614c6b8282856145f3565b6000601f831160018114614c9a5760008415614c88578287015490505b614c928582614664565b865550614d05565b601f198416614ca887614c11565b9650614cb3866144d4565b60005b82811015614cdb57848901548255600182019150600185019450602081019050614cb6565b86831015614cf85784890154614cf4601f891682614646565b8355505b6001600288020188555050505b5050505050505b565b6000606082019050614d236000830186613f4e565b614d306020830185613f4e565b8181036040830152614d42818461483d565b9050949350505050565b6000604082019050614d616000830185613f4e565b8181036020830152614d738184613b2a565b90509392505050565b6000604082019050614d916000830185613f4e565b614d9e6020830184613f4e565b9392505050565b60006060820190508181036000830152614dbf8186613b2a565b9050614dce6020830185613f4e565b614ddb6040830184613f4e565b949350505050565b600060e0820190508181036000830152614dfd818a613b2a565b9050614e0c6020830189613f4e565b614e196040830188614989565b614e266060830187614998565b614e336080830186614989565b614e4060a0830185614989565b614e4d60c0830184614989565b9897505050505050505056fea2646970667358221220d3481a387a7ff0720d970eb55c8011c5c42b7b6b7ea4c929bfabb4b60e9d44e464736f6c63430008130033",
  "immutableReferences": {
    "4": [
      {
        "length": 32,
        "start": 1809
      },
      {
        "length": 32,
        "start": 2200
      },
      {
        "length": 32,
        "start": 2404
      },
      {
        "length": 32,
        "start": 2709
      },
      {
        "length": 32,
        "start": 3068
      },
      {
        "length": 32,
        "start": 4049
      },
      {
        "length": 32,
        "start": 4324
      },
      {
        "length": 32,
        "start": 4521
      },
      {
        "length": 32,
        "start": 4986
      },
      {
        "length": 32,
        "start": 5423
      },
      {
        "length": 32,
        "start": 5856
      },
      {
        "length": 32,
        "start": 6637
      },
      {
        "length": 32,
        "start": 7270
      },
      {
        "length": 32,
        "start": 7526
      },
      {
        "length": 32,
        "start": 7956
      },
      {
        "length": 32,
        "start": 8406
      },
      {
        "length": 32,
        "start": 8608
      },
      {
        "length": 32,
        "start": 8729
      },
      {
        "length": 32,
        "start": 9038
      },
      {
        "length": 32,
        "start": 9206
      },
      {
        "length": 32,
        "start": 9408
      },
      {
        "length": 32,
        "start": 9529
      },
      {
        "length": 32,
        "start": 9815
      },
      {
        "length": 32,
        "start": 10130
      },
      {
        "length": 32,
        "start": 10715
      },
      {
        "length": 32,
        "start": 11015
      },
      {
        "length": 32,
        "start": 11873
      },
      {
        "length": 32,
        "start": 12076
      },
      {
        "length": 32,
        "start": 12716
      },
      {
        "length": 32,
        "start": 13141
      },
      {
        "length": 32,
        "start": 13350
      },
      {
        "length": 32,
        "start": 13764
      },
      {
        "length": 32,
        "start": 13896
      }
    ],
    "37": [
      {
        "length": 32,
        "start": 12109
      }
    ],
    "40": [
      {
        "length": 32,
        "start": 1953
      },
      {
        "length": 32,
        "start": 2344
      },
      {
        "length": 32,
        "start": 2546
      },
      {
        "length": 32,
        "start": 3750
      },
      {
        "length": 32,
        "start": 4264
      },
      {
        "length": 32,
        "start": 4461
      },
      {
        "length": 32,
        "start": 5238
      },
      {
        "length": 32,
        "start": 8098
      },
      {
        "length": 32,
        "start": 8548
      },
      {
        "length": 32,
        "start": 8873
      },
      {
        "length": 32,
        "start": 9348
      },
      {
        "length": 32,
        "start": 10655
      },
      {
        "length": 32,
        "start": 11432
      },
      {
        "length": 32,
        "start": 11573
      },
      {
        "length": 32,
        "start": 12015
      },
      {
        "length": 32,
        "start": 13081
      },
      {
        "length": 32,
        "start": 13703
      }
    ]
  },
  "source": "//SPDX-License-Identifier: MIT\r\npragma solidity ^0.8.17;\r\n\r\nimport \"./PublicContract.sol\";\r\n// contract of a node\r\ncontract Node {\r\n\r\n    address immutable private owner;  //Owner address\r\n\r\n    string private userName; //my user name after registering\r\n\r\n    address[] private requestedShareHolders; //temporary list of share holders\r\n\r\n    address[] private  shareHolders; //My secret holders who accepted the invitation\r\n\r\n    address[] private releaseAcceptedShareHolders; //After requesting the share - this is the list who has accepted to release the secret\r\n\r\n    address[]private rejectedShareHolders;  //the holders who rejected the invitation\r\n\r\n    string[] private shares;    //Shares list belonging to the user \r\n\r\n    mapping(address => string) private shareHoldersMap; //My secret baring holders\r\n\r\n    mapping(address => string) private sharesMap; //The secrets I'm holding\r\n\r\n    address[] private secretOwners;  //The owners of the secrets that I'm holding \r\n\r\n    string[] private regeneratedShares;      //regenerated shares as a requester\r\n    \r\n    address immutable private myContractAddress; //mycontract address \r\n\r\n    PublicContract immutable private defaultPublicContract; //Public contract obeject\r\n\r\n    string public myState;     // States : NODE_CREATED/SHAREHOLDER_REQUESTED/SHAREHOLDER_ACCEPTED/SHARES_DISTRIBUTED/READY_TO_RELEASE\r\n\r\n    string  private otpHash;  //otp hash value to confirm the user \r\n\r\n    string private emailAddress; //email address of the user\r\n\r\n    string private encryptedVault; //encrypted vault releases when all shareholders accepted \r\n\r\n    address private requester;   //unique requester\r\n\r\n    constructor(address defaultPublicContractAddress) { \r\n        owner = msg.sender;\r\n        //Hard coded deployment of the public contract\r\n        defaultPublicContract=PublicContract(defaultPublicContractAddress);  \r\n        myContractAddress = address(this);\r\n        myState=\"NODE_CREATED\";\r\n\r\n    }\r\n    // struct AddHolderRequest{\r\n    //     address secretOwner;\r\n    //     address shareHolder;\r\n    // }\r\n\r\n    // msg.data (bytes): complete calldata\r\n    // msg.gas (uint): remaining gas\r\n    // msg.sender (address): sender of the message (current call)\r\n    // msg.sig (bytes4): first four bytes of the calldata (i.e. function identifier)\r\n    // msg.value (uint): number of wei sent with the message\r\n\r\n//modifiers \r\n    modifier onlyOwner() {\r\n        require(msg.sender == owner, \"Only owner has the privilege\");\r\n        _;\r\n    }\r\n    modifier checkIsRegistered() {\r\n\trequire(isRegistered(), \"Owner has to register to public contract\");\r\n\t_;\r\n    }\r\n\r\n//function to check the userName is already registered \r\n    function isUserNameExist(string memory tempUserName)public view returns(bool){\r\n        return  defaultPublicContract.isExists(tempUserName);\r\n    }\r\n\r\n//function to check the user if this contract is registered or not \r\n    function isRegistered()public view returns(bool){\r\n       return  defaultPublicContract.isExists(userName);\r\n    }\r\n\r\n//Every node should register with a name into the public contract \r\n    function registerToPublicContract(string memory name)public onlyOwner{\r\n        defaultPublicContract.register(name,owner,myContractAddress);\r\n        userName=name;\r\n        return;\r\n\r\n    }\r\n//get contract address when knowing the public address\r\n    function getContractAddressOfPublicAddress(address publicAddress)public view onlyOwner returns (address){\r\n       address contractAddress= defaultPublicContract.getContractAddressByPublicAddress(publicAddress);\r\n       return contractAddress;\r\n    }\r\n//get my user name \r\n    function getUserName()public view onlyOwner returns(string memory){\r\n        return userName;\r\n    }\r\n\r\n//get otp hash value\r\n    function getOtp()public onlyOwner view returns(string memory){\r\n        return otpHash;\r\n    }\r\n//get email address\r\n    function getEmailAddress()public view returns(string memory){\r\n        return emailAddress;\r\n    }\r\n \r\n//compare otpHash value \r\n    function compareOtpHash(string memory tempOtp)public view returns(bool){\r\n        if(keccak256(bytes(tempOtp)) == keccak256(bytes(otpHash))){\r\n            return true;\r\n        }else{\r\n            return false;\r\n        }\r\n        \r\n    }\r\n\r\n\r\n//set email address\r\n    function setEmail(string memory email) public{\r\n        emailAddress=email;\r\n    }\r\n\r\n//set vault hash value\r\n    function setEncryptedVault(string memory vault)public {\r\n        encryptedVault=vault;\r\n    }\r\n//!Share Holder's role-------------------------------------------------------------------------//\r\n\r\n//Check the requests from the secret owner to a node to add as a share holder\r\n    function checkRequestsForBeAHolder()public onlyOwner view returns (address[] memory){\r\n    address[] memory _requestsForMe = defaultPublicContract.checkRequestsByShareholder(owner);\r\n    return _requestsForMe;\r\n    }\r\n\r\n//Accept the share holder invitation\r\n    function acceptInvitation(address secretOwner) public onlyOwner  {\r\n        defaultPublicContract.respondToBeShareHolder(owner,secretOwner,true);\r\n    }\r\n//Reject the share holder invitation\r\n    function rejectInvitation(address secretOwner) public onlyOwner {\r\n       defaultPublicContract.respondToBeShareHolder(owner,secretOwner,false);\r\n        \r\n    }\r\n\r\n//Take the secret form the secret owner and write the share in the shares map \r\n//( this is access though the public contract by the secret owner ) \r\n\r\n    function takeTheSecretFromTheOwner(address ownerAddress,string memory sharedString) public{\r\n        secretOwners.push(ownerAddress);\r\n        sharesMap[ownerAddress]=sharedString;\r\n    }\r\n\r\n\r\n//Check the requests from the requester to release the secret\r\n    function checkRequestsForShare()public onlyOwner view returns (address[] memory){\r\n    address[] memory _shareRequests = defaultPublicContract.checkRequestsForTheSeceret(secretOwners);\r\n    return _shareRequests;\r\n    }\r\n\r\n//delete secret owner from the holding secret owners list \r\n    function deleteSecretOwnerFromList(address secretOwnerAddress)public onlyOwner checkIsRegistered{\r\n        for (uint256 i = 0; i<secretOwners.length; i++){\r\n            if(secretOwners[i] ==secretOwnerAddress){\r\n                delete secretOwners[i];\r\n            }\r\n\r\n        }\r\n    }\r\n\r\n//release the secret to the requester\r\n    function releaseSecret(address secretOwnerAddress) public onlyOwner checkIsRegistered {\r\n        string memory myShare =sharesMap[secretOwnerAddress];\r\n        defaultPublicContract.releaseTheSecret(secretOwnerAddress,myShare);\r\n        defaultPublicContract.updateOwnersAcceptedToReleaseList(secretOwnerAddress,msg.sender);\r\n        //defaultPublicContract.deleteShareRequest(msg.sender,secretOwnerAddress);\r\n        deleteSecretOwnerFromList(secretOwnerAddress);\r\n\r\n        \r\n    }\r\n\r\n\r\n    \r\n    \r\n\r\n//!Secret owners role----------------------------------------------------------------------//\r\n//Check all the temporary holders have accepted \r\n    function checkAcceptance()public onlyOwner returns(bool){\r\n        refreshHolderLists();\r\n        if(shareHolders.length>=requestedShareHolders.length){\r\n            return true;\r\n        }\r\n        return false;\r\n    }\r\n\r\n//Get my state\r\n    function getMyState()public view onlyOwner returns(string memory){\r\n        return myState;\r\n    }\r\n\r\n//refresh my state\r\n    function refreshState()public {\r\n        //FUNCTION TO   check all the shareholders accepted \r\n        //if(myState ==\"SHAREHOLDER_REQUESTED\"){\r\n        if(keccak256(bytes(myState)) == keccak256(bytes(\"SHAREHOLDER_REQUESTED\"))){\r\n            if(checkAcceptance()){\r\n                myState=\"SHAREHOLDER_ACCEPTED\";\r\n            }\r\n        }\r\n        if(keccak256(bytes(myState)) == keccak256(bytes(\"SHARES_DISTRIBUTED\"))){\r\n            //check-function to all holders accepted to release default value of our function is 2\r\n            if(releaseAcceptedShareHolders.length>=2){\r\n                myState=\"READY_TO_RELEASE\";\r\n            }\r\n\r\n        }\r\n    }\r\n//Addiing a share holder to a temporary list\r\n    function addTemporaryShareHolders(address payable shareHolder) public onlyOwner checkIsRegistered {\r\n        requestedShareHolders.push(shareHolder);\r\n        \r\n    }\r\n//Todo combine this with distribute function \r\n//add my shares to the contract \r\n    function addMyShares(string[] memory myShares)public onlyOwner{\r\n       shares =myShares ;\r\n    }\r\n\r\n//get my shares \r\n    function getMyShares() public onlyOwner view returns(string[] memory){\r\n        return shares;\r\n    }\r\n\r\n//Regenerate the secret after the responses from the holders \r\n    function getRequestedShareHolders() public view checkIsRegistered onlyOwner returns (address[] memory){\r\n        return requestedShareHolders;\r\n    }\r\n//get my share holders who accepted the request \r\n    function getShareHolders() public view returns (address[] memory)  {\r\n        return shareHolders;\r\n    }\r\n\r\n    //get my share holders who rejected the request \r\n    function getRejectedShareHolders() public view returns (address[] memory)  {\r\n        return rejectedShareHolders;\r\n    } \r\n\r\n\r\n\r\n    function remove(uint256 index) public {\r\n        // Move the last element into the place to delete\r\n        requestedShareHolders[index] = requestedShareHolders[requestedShareHolders.length - 1];\r\n        // Remove the last element\r\n        requestedShareHolders.pop();\r\n    }\r\n\r\n//Removing a share holder from the list \r\n    function removeShareHolders(address payable shareHolder) public onlyOwner checkIsRegistered {\r\n        uint256 j = 0;\r\n        for (uint256 i=0; i < requestedShareHolders.length; i++) {\r\n            if (requestedShareHolders[i] == shareHolder) {\r\n                j=i;\r\n                break;\r\n            }\r\n        }\r\n        remove(j);\r\n    }\r\n\r\n\r\n\r\n//Make the be holder requests \r\n    function makingHolderRequests() public onlyOwner checkIsRegistered{\r\n        myState=\"SHAREHOLDER_REQUESTED\";\r\n        for (uint256 i=0; i<requestedShareHolders.length; i++){\r\n            address temporaryHolder= requestedShareHolders[i];\r\n            defaultPublicContract.makeARequestToBeAShareHolder(owner,temporaryHolder);\r\n\r\n        }\r\n    }\r\n\r\n//check the holder request acceptance and make the share holders list \r\n    function refreshHolderLists()public  onlyOwner checkIsRegistered{\r\n        address[] memory _requestAcceptedHolders=defaultPublicContract.getRequestAcceptedHoldersList(owner);\r\n        address[] memory _requestRejectedHolders=defaultPublicContract.getRequestRejectedHoldersList(owner);  \r\n\r\n        for (uint256 i = 0; i<_requestAcceptedHolders.length; i++){\r\n            address temporaryHolder= _requestAcceptedHolders[i];\r\n            shareHolders.push(temporaryHolder);\r\n            //shareHolders[i]=temporaryHolder;\r\n\r\n        }\r\n        for (uint256 i = 0; i<_requestRejectedHolders.length; i++){\r\n            address temporaryHolder= _requestRejectedHolders[i];\r\n            rejectedShareHolders.push(temporaryHolder);\r\n            //shareHolders[i]=temporaryHolder;\r\n\r\n        }\r\n    }\r\n\r\n//Distribute the share function \r\n//Need to improve this with validations \r\n    function distribute(string memory email,string memory vault) public onlyOwner checkIsRegistered{\r\n        setEmail(email);\r\n        setEncryptedVault(vault);\r\n        refreshHolderLists();\r\n        cleanReleaseAcceptedShareHolders();  // clean the array contains addresses that accepted to release the secret \r\n        require(shares.length <= shareHolders.length, \"Not enough share holders!!\");\r\n        if (shares.length <= shareHolders.length) {\r\n            for (uint256 i = 0; i < shares.length; i++) {\r\n                shareHoldersMap[shareHolders[i]] = shares[i]; \r\n                defaultPublicContract.makeSharesAccessibleToTheHolders(owner,shareHolders[i],shares[i]);\r\n            }\r\n        }\r\n        myState=\"SHARES_DISTRIBUTED\";\r\n\r\n    }\r\n\r\n//requesting the shares by the third party from share holders using otp and username\r\n    function requestSharesFromHolders(string memory name,bytes32 msgh1, uint8 v, bytes32 r, bytes32 s,bytes32 msgh2) public  checkIsRegistered {\r\n        defaultPublicContract.makeARequestToGetShares(name,owner,msgh1,v,r,s,msgh2);\r\n        \r\n        return ;\r\n    }\r\n\r\n//update the requster \r\n    function setRequester(address requestingParty)public checkIsRegistered{\r\n        requester=requestingParty;\r\n        return;\r\n    }\r\n\r\n//return the vaultHash to the third party\r\n    function returnMyVaultHash() public view checkIsRegistered returns(string memory){  \r\n        if(keccak256(bytes(myState)) == keccak256(bytes(\"READY_TO_RELEASE\"))){\r\n            //make the vaultHash accessible to the third party\r\n            if (msg.sender==requester || msg.sender==owner){\r\n                return encryptedVault;\r\n            }\r\n            \r\n        }\r\n        return \"\";\r\n    \r\n        \r\n    }\r\n\r\n//request the owner's vault hash\r\n    function requestVaultHashOfSecretOwner(string memory name,bytes32 msgh1, uint8 v, bytes32 r, bytes32 s,bytes32 msgh2)public view checkIsRegistered returns(string memory) {\r\n        string memory tempVault =defaultPublicContract.makeARequestToGetVaultHash(name,msgh1,v,r,s,msgh2);\r\n        return tempVault;\r\n    }\r\n\r\n//saves the share to the requested nodes regenerated shsres list\r\n    function saveToRegeneratedShares(string memory share)public checkIsRegistered{\r\n        regeneratedShares.push(share);\r\n        return;\r\n    }\r\n\r\n//saves the share holders address to the secret owner in releaseAcceptedShareHolders list \r\n    function saveToReleaseAcceptedShareHolders(address shareHolder)public checkIsRegistered{\r\n        releaseAcceptedShareHolders.push(shareHolder);\r\n        refreshState();\r\n        return;\r\n    }\r\n\r\n//clean the releaseAcceptedShareHolders List\r\n    function cleanReleaseAcceptedShareHolders()public onlyOwner{\r\n        delete releaseAcceptedShareHolders;\r\n        return;\r\n    }\r\n\r\n//Regenerate the secret after the responses from the holders \r\n    function regenerate() public view checkIsRegistered onlyOwner returns (string[] memory){\r\n        //This should generate from the other nodes \r\n        return regeneratedShares;\r\n    }\r\n\r\n//request email of a user\r\n    function getEmailOfUser(string memory name)public view onlyOwner returns (string memory){\r\n        return defaultPublicContract.getEmailAddressByUserName(name);\r\n    }\r\n// //Repay the gas fee to the holders \r\n//     function repayGasFee()public onlyOwner{\r\n\r\n//     }\r\n\r\n\r\n}\r\n\r\n",
  "sourcePath": "C:\\Users\\Sandaru Kaveesha\\AndroidStudioProjects\\Pheonix\\contracts\\contracts\\Node.sol",
  "compiler": {
    "name": "solc",
    "version": "0.8.19+commit.7dd6d404.Emscripten.clang"
  },
  "schemaVersion": "3.4.13",
  "updatedAt": "2023-05-07T05:58:59.594Z",
  "devdoc": {
    "kind": "dev",
    "methods": {},
    "version": 1
  },
  "userdoc": {
    "kind": "user",
    "methods": {},
    "version": 1
  }
}