{
  "contractName": "PublicContract",
  "abi": [
    {
      "inputs": [],
      "stateMutability": "nonpayable",
      "type": "constructor"
    },
    {
      "inputs": [
        {
          "internalType": "string",
          "name": "name",
          "type": "string"
        }
      ],
      "name": "isExists",
      "outputs": [
        {
          "internalType": "bool",
          "name": "",
          "type": "bool"
        }
      ],
      "stateMutability": "view",
      "type": "function"
    },
    {
      "inputs": [
        {
          "internalType": "string",
          "name": "name",
          "type": "string"
        },
        {
          "internalType": "address",
          "name": "publicAddress",
          "type": "address"
        },
        {
          "internalType": "address",
          "name": "myContractAddress",
          "type": "address"
        }
      ],
      "name": "register",
      "outputs": [],
      "stateMutability": "nonpayable",
      "type": "function"
    },
    {
      "inputs": [
        {
          "internalType": "string",
          "name": "name",
          "type": "string"
        }
      ],
      "name": "getContractAddressByName",
      "outputs": [
        {
          "components": [
            {
              "internalType": "address",
              "name": "publicAddress",
              "type": "address"
            },
            {
              "internalType": "address",
              "name": "contractAddress",
              "type": "address"
            }
          ],
          "internalType": "struct PublicContract.SampleNode",
          "name": "",
          "type": "tuple"
        }
      ],
      "stateMutability": "view",
      "type": "function"
    },
    {
      "inputs": [
        {
          "internalType": "address",
          "name": "publicAddress",
          "type": "address"
        }
      ],
      "name": "getContractAddressByPublicAddress",
      "outputs": [
        {
          "internalType": "address",
          "name": "",
          "type": "address"
        }
      ],
      "stateMutability": "view",
      "type": "function"
    },
    {
      "inputs": [
        {
          "internalType": "address",
          "name": "holderAddress",
          "type": "address"
        }
      ],
      "name": "checkRequestsByShareholder",
      "outputs": [
        {
          "internalType": "address[]",
          "name": "",
          "type": "address[]"
        }
      ],
      "stateMutability": "view",
      "type": "function"
    },
    {
      "inputs": [
        {
          "internalType": "address",
          "name": "holderAddress",
          "type": "address"
        }
      ],
      "name": "getSecretOwnerAddressesCountInHolderRequests",
      "outputs": [
        {
          "internalType": "uint256",
          "name": "",
          "type": "uint256"
        }
      ],
      "stateMutability": "view",
      "type": "function"
    },
    {
      "inputs": [
        {
          "internalType": "address[]",
          "name": "secretOwners",
          "type": "address[]"
        }
      ],
      "name": "checkRequestsForTheSeceret",
      "outputs": [
        {
          "internalType": "address[]",
          "name": "",
          "type": "address[]"
        }
      ],
      "stateMutability": "view",
      "type": "function"
    },
    {
      "inputs": [
        {
          "internalType": "address[]",
          "name": "secretOwners",
          "type": "address[]"
        }
      ],
      "name": "getSecretOwnerAddressesCountInSecretRequests",
      "outputs": [
        {
          "internalType": "uint256",
          "name": "",
          "type": "uint256"
        }
      ],
      "stateMutability": "view",
      "type": "function"
    },
    {
      "inputs": [
        {
          "internalType": "address",
          "name": "requseterAddress",
          "type": "address"
        },
        {
          "internalType": "address",
          "name": "secretOwnerAddress",
          "type": "address"
        }
      ],
      "name": "deleteShareRequest",
      "outputs": [],
      "stateMutability": "nonpayable",
      "type": "function"
    },
    {
      "inputs": [
        {
          "internalType": "address",
          "name": "secretOwner",
          "type": "address"
        },
        {
          "internalType": "string",
          "name": "sharedString",
          "type": "string"
        }
      ],
      "name": "releaseTheSecret",
      "outputs": [],
      "stateMutability": "nonpayable",
      "type": "function"
    },
    {
      "inputs": [
        {
          "internalType": "address",
          "name": "secretOwner",
          "type": "address"
        },
        {
          "internalType": "address",
          "name": "shareHolder",
          "type": "address"
        }
      ],
      "name": "updateOwnersAcceptedToReleaseList",
      "outputs": [],
      "stateMutability": "nonpayable",
      "type": "function"
    },
    {
      "inputs": [
        {
          "internalType": "uint256",
          "name": "index",
          "type": "uint256"
        }
      ],
      "name": "removeFromHolderRequestList",
      "outputs": [],
      "stateMutability": "nonpayable",
      "type": "function"
    },
    {
      "inputs": [
        {
          "internalType": "address",
          "name": "shareHolder",
          "type": "address"
        },
        {
          "internalType": "address",
          "name": "secretOwner",
          "type": "address"
        },
        {
          "internalType": "bool",
          "name": "acceptance",
          "type": "bool"
        }
      ],
      "name": "respondToBeShareHolder",
      "outputs": [],
      "stateMutability": "nonpayable",
      "type": "function"
    },
    {
      "inputs": [
        {
          "internalType": "address",
          "name": "secretOwner",
          "type": "address"
        },
        {
          "internalType": "address",
          "name": "holder",
          "type": "address"
        }
      ],
      "name": "makeARequestToBeAShareHolder",
      "outputs": [],
      "stateMutability": "nonpayable",
      "type": "function"
    },
    {
      "inputs": [
        {
          "internalType": "address",
          "name": "ownerAddress",
          "type": "address"
        }
      ],
      "name": "getSecretHolderAddressesCountInAcceptedHoldersList",
      "outputs": [
        {
          "internalType": "uint256",
          "name": "",
          "type": "uint256"
        }
      ],
      "stateMutability": "view",
      "type": "function"
    },
    {
      "inputs": [
        {
          "internalType": "address",
          "name": "secretOwner",
          "type": "address"
        }
      ],
      "name": "getRequestAcceptedHoldersList",
      "outputs": [
        {
          "internalType": "address[]",
          "name": "",
          "type": "address[]"
        }
      ],
      "stateMutability": "nonpayable",
      "type": "function"
    },
    {
      "inputs": [
        {
          "internalType": "address",
          "name": "ownerAddress",
          "type": "address"
        }
      ],
      "name": "getSecretHolderAddressesCountInRejectedHoldersList",
      "outputs": [
        {
          "internalType": "uint256",
          "name": "",
          "type": "uint256"
        }
      ],
      "stateMutability": "view",
      "type": "function"
    },
    {
      "inputs": [
        {
          "internalType": "address",
          "name": "secretOwner",
          "type": "address"
        }
      ],
      "name": "getRequestRejectedHoldersList",
      "outputs": [
        {
          "internalType": "address[]",
          "name": "",
          "type": "address[]"
        }
      ],
      "stateMutability": "nonpayable",
      "type": "function"
    },
    {
      "inputs": [
        {
          "internalType": "address",
          "name": "secretOwner",
          "type": "address"
        },
        {
          "internalType": "address",
          "name": "holder",
          "type": "address"
        },
        {
          "internalType": "string",
          "name": "sharedString",
          "type": "string"
        }
      ],
      "name": "makeSharesAccessibleToTheHolders",
      "outputs": [],
      "stateMutability": "nonpayable",
      "type": "function"
    },
    {
      "inputs": [
        {
          "internalType": "string",
          "name": "name",
          "type": "string"
        },
        {
          "internalType": "address",
          "name": "requesterAddress",
          "type": "address"
        },
        {
          "internalType": "bytes32",
          "name": "msgh1",
          "type": "bytes32"
        },
        {
          "internalType": "uint8",
          "name": "v",
          "type": "uint8"
        },
        {
          "internalType": "bytes32",
          "name": "r",
          "type": "bytes32"
        },
        {
          "internalType": "bytes32",
          "name": "s",
          "type": "bytes32"
        },
        {
          "internalType": "bytes32",
          "name": "msgh2",
          "type": "bytes32"
        }
      ],
      "name": "makeARequestToGetShares",
      "outputs": [],
      "stateMutability": "nonpayable",
      "type": "function"
    },
    {
      "inputs": [
        {
          "internalType": "string",
          "name": "name",
          "type": "string"
        },
        {
          "internalType": "bytes32",
          "name": "msgh1",
          "type": "bytes32"
        },
        {
          "internalType": "uint8",
          "name": "v",
          "type": "uint8"
        },
        {
          "internalType": "bytes32",
          "name": "r",
          "type": "bytes32"
        },
        {
          "internalType": "bytes32",
          "name": "s",
          "type": "bytes32"
        },
        {
          "internalType": "bytes32",
          "name": "msgh2",
          "type": "bytes32"
        }
      ],
      "name": "makeARequestToGetVaultHash",
      "outputs": [
        {
          "internalType": "string",
          "name": "",
          "type": "string"
        }
      ],
      "stateMutability": "view",
      "type": "function"
    },
    {
      "inputs": [
        {
          "internalType": "string",
          "name": "name",
          "type": "string"
        }
      ],
      "name": "getEmailAddressByUserName",
      "outputs": [
        {
          "internalType": "string",
          "name": "",
          "type": "string"
        }
      ],
      "stateMutability": "view",
      "type": "function"
    }
  ],
  "bytecode": "0x60a060405234801561001057600080fd5b503373ffffffffffffffffffffffffffffffffffffffff1660808173ffffffffffffffffffffffffffffffffffffffff1681525050608051613eda61006760003960008181610b9f0152611a700152613eda6000f3fe608060405234801561001057600080fd5b50600436106101425760003560e01c806380e2412d116100b8578063bc9d62711161007c578063bc9d6271146103e3578063c5882344146103ff578063c6244a271461042f578063cc2f22f11461044b578063d71e80e314610467578063ec6ea3aa1461049757610142565b806380e2412d1461030757806382760fca1461033757806399f8b09f146103675780639c11155914610397578063a5311bcf146103b357610142565b806367e37f701161010a57806367e37f70146102235780636e8548bb1461025357806374cf3e511461026f5780637568708f1461029f5780637915c069146102cf5780637cbfc58f146102eb57610142565b806309da40ae146101475780630d85d8391461017757806314338f9d146101a757806354f5fcba146101d757806356da5eea14610207575b600080fd5b610161600480360381019061015c9190613083565b6104b3565b60405161016e91906130e5565b60405180910390f35b610191600480360381019061018c91906131b5565b6106de565b60405161019e9190613219565b60405180910390f35b6101c160048036038101906101bc9190613234565b610767565b6040516101ce91906130e5565b60405180910390f35b6101f160048036038101906101ec9190613234565b6108c0565b6040516101fe91906130e5565b60405180910390f35b610221600480360381019061021c91906132d0565b610a19565b005b61023d600480360381019061023891906131b5565b610d43565b60405161024a919061340d565b60405180910390f35b61026d6004803603810190610268919061342f565b610ea4565b005b61028960048036038101906102849190613234565b610faa565b60405161029691906130e5565b60405180910390f35b6102b960048036038101906102b49190613234565b611103565b6040516102c6919061352d565b60405180910390f35b6102e960048036038101906102e4919061354f565b6114b3565b005b610305600480360381019061030091906135be565b611674565b005b610321600480360381019061031c919061361a565b611923565b60405161032e919061340d565b60405180910390f35b610351600480360381019061034c91906131b5565b611b51565b60405161035e91906136f2565b60405180910390f35b610381600480360381019061037c9190613234565b611c3b565b60405161038e919061352d565b60405180910390f35b6103b160048036038101906103ac919061342f565b611e3e565b005b6103cd60048036038101906103c89190613234565b6120cd565b6040516103da919061371c565b60405180910390f35b6103fd60048036038101906103f89190613763565b612135565b005b61041960048036038101906104149190613083565b61243d565b604051610426919061352d565b60405180910390f35b6104496004803603810190610444919061342f565b61270e565b005b610465600480360381019061046091906137b6565b6127e7565b005b610481600480360381019061047c9190613234565b6128c3565b60405161048e919061352d565b60405180910390f35b6104b160048036038101906104ac9190613851565b612c73565b005b6000806000905060005b83518110156106d45760008482815181106104db576104da61387e565b5b6020026020010151905060005b6003805490508110156106bf5760006003828154811061050b5761050a61387e565b5b90600052602060002090600302016040518060600160405290816000820160009054906101000a900473ffffffffffffffffffffffffffffffffffffffff1673ffffffffffffffffffffffffffffffffffffffff1673ffffffffffffffffffffffffffffffffffffffff16815260200160018201805461058a906138dc565b80601f01602080910402602001604051908101604052809291908181526020018280546105b6906138dc565b80156106035780601f106105d857610100808354040283529160200191610603565b820191906000526020600020905b8154815290600101906020018083116105e657829003601f168201915b505050505081526020016002820160009054906101000a900473ffffffffffffffffffffffffffffffffffffffff1673ffffffffffffffffffffffffffffffffffffffff1673ffffffffffffffffffffffffffffffffffffffff168152505090508273ffffffffffffffffffffffffffffffffffffffff16816040015173ffffffffffffffffffffffffffffffffffffffff16036106ab576001856106a8919061393c565b94505b5080806106b790613970565b9150506104e8565b505080806106cc90613970565b9150506104bd565b5080915050919050565b60008073ffffffffffffffffffffffffffffffffffffffff1660018360405161070791906139f4565b908152602001604051809103902060000160009054906101000a900473ffffffffffffffffffffffffffffffffffffffff1673ffffffffffffffffffffffffffffffffffffffff160361075d5760009050610762565b600190505b919050565b6000806000905060005b6005805490508110156108b6576000600582815481106107945761079361387e565b5b90600052602060002090600202016040518060400160405290816000820160009054906101000a900473ffffffffffffffffffffffffffffffffffffffff1673ffffffffffffffffffffffffffffffffffffffff1673ffffffffffffffffffffffffffffffffffffffff1681526020016001820160009054906101000a900473ffffffffffffffffffffffffffffffffffffffff1673ffffffffffffffffffffffffffffffffffffffff1673ffffffffffffffffffffffffffffffffffffffff168152505090508473ffffffffffffffffffffffffffffffffffffffff16816000015173ffffffffffffffffffffffffffffffffffffffff16036108a25760018361089f919061393c565b92505b5080806108ae90613970565b915050610771565b5080915050919050565b6000806000905060005b600480549050811015610a0f576000600482815481106108ed576108ec61387e565b5b90600052602060002090600202016040518060400160405290816000820160009054906101000a900473ffffffffffffffffffffffffffffffffffffffff1673ffffffffffffffffffffffffffffffffffffffff1673ffffffffffffffffffffffffffffffffffffffff1681526020016001820160009054906101000a900473ffffffffffffffffffffffffffffffffffffffff1673ffffffffffffffffffffffffffffffffffffffff1673ffffffffffffffffffffffffffffffffffffffff168152505090508473ffffffffffffffffffffffffffffffffffffffff16816000015173ffffffffffffffffffffffffffffffffffffffff16036109fb576001836109f8919061393c565b92505b508080610a0790613970565b9150506108ca565b5080915050919050565b6000600188604051610a2b91906139f4565b90815260200160405180910390206040518060400160405290816000820160009054906101000a900473ffffffffffffffffffffffffffffffffffffffff1673ffffffffffffffffffffffffffffffffffffffff1673ffffffffffffffffffffffffffffffffffffffff1681526020016001820160009054906101000a900473ffffffffffffffffffffffffffffffffffffffff1673ffffffffffffffffffffffffffffffffffffffff1673ffffffffffffffffffffffffffffffffffffffff16815250509050600081602001519050600060405180606001604052808a73ffffffffffffffffffffffffffffffffffffffff1681526020018b8152602001846000015173ffffffffffffffffffffffffffffffffffffffff168152509050600060018989898960405160008152602001604052604051610b6f9493929190613a29565b6020604051602081039080840390855afa158015610b91573d6000803e3d6000fd5b5050506020604051035190507f000000000000000000000000000000000000000000000000000000000000000073ffffffffffffffffffffffffffffffffffffffff168173ffffffffffffffffffffffffffffffffffffffff1603610d3657848903610d3557600382908060018154018082558091505060019003906000526020600020906003020160009091909190915060008201518160000160006101000a81548173ffffffffffffffffffffffffffffffffffffffff021916908373ffffffffffffffffffffffffffffffffffffffff1602179055506020820151816001019081610c7f9190613c1a565b5060408201518160020160006101000a81548173ffffffffffffffffffffffffffffffffffffffff021916908373ffffffffffffffffffffffffffffffffffffffff16021790555050508273ffffffffffffffffffffffffffffffffffffffff1663227a30c5336040518263ffffffff1660e01b8152600401610d02919061371c565b600060405180830381600087803b158015610d1c57600080fd5b505af1158015610d30573d6000803e3d6000fd5b505050505b5b5050505050505050505050565b60606000600183604051610d5791906139f4565b90815260200160405180910390206040518060400160405290816000820160009054906101000a900473ffffffffffffffffffffffffffffffffffffffff1673ffffffffffffffffffffffffffffffffffffffff1673ffffffffffffffffffffffffffffffffffffffff1681526020016001820160009054906101000a900473ffffffffffffffffffffffffffffffffffffffff1673ffffffffffffffffffffffffffffffffffffffff1673ffffffffffffffffffffffffffffffffffffffff168152505090506000816020015190508073ffffffffffffffffffffffffffffffffffffffff1663c4382fa66040518163ffffffff1660e01b8152600401600060405180830381865afa158015610e72573d6000803e3d6000fd5b505050506040513d6000823e3d601f19601f82011682018060405250810190610e9b9190613d5c565b92505050919050565b600060405180604001604052808473ffffffffffffffffffffffffffffffffffffffff1681526020018373ffffffffffffffffffffffffffffffffffffffff168152509050600281908060018154018082558091505060019003906000526020600020906002020160009091909190915060008201518160000160006101000a81548173ffffffffffffffffffffffffffffffffffffffff021916908373ffffffffffffffffffffffffffffffffffffffff16021790555060208201518160010160006101000a81548173ffffffffffffffffffffffffffffffffffffffff021916908373ffffffffffffffffffffffffffffffffffffffff1602179055505050505050565b6000806000905060005b6002805490508110156110f957600060028281548110610fd757610fd661387e565b5b90600052602060002090600202016040518060400160405290816000820160009054906101000a900473ffffffffffffffffffffffffffffffffffffffff1673ffffffffffffffffffffffffffffffffffffffff1673ffffffffffffffffffffffffffffffffffffffff1681526020016001820160009054906101000a900473ffffffffffffffffffffffffffffffffffffffff1673ffffffffffffffffffffffffffffffffffffffff1673ffffffffffffffffffffffffffffffffffffffff168152505090508473ffffffffffffffffffffffffffffffffffffffff16816020015173ffffffffffffffffffffffffffffffffffffffff16036110e5576001836110e2919061393c565b92505b5080806110f190613970565b915050610fb4565b5080915050919050565b6060600061111083610767565b90506000808267ffffffffffffffff81111561112f5761112e612ee2565b5b60405190808252806020026020018201604052801561115d5781602001602082028036833780820191505090505b50905060005b6005805490508110156112fa576000600582815481106111865761118561387e565b5b90600052602060002090600202016040518060400160405290816000820160009054906101000a900473ffffffffffffffffffffffffffffffffffffffff1673ffffffffffffffffffffffffffffffffffffffff1673ffffffffffffffffffffffffffffffffffffffff1681526020016001820160009054906101000a900473ffffffffffffffffffffffffffffffffffffffff1673ffffffffffffffffffffffffffffffffffffffff1673ffffffffffffffffffffffffffffffffffffffff168152505090508673ffffffffffffffffffffffffffffffffffffffff16816000015173ffffffffffffffffffffffffffffffffffffffff16036112e657806020015183858151811061129c5761129b61387e565b5b602002602001019073ffffffffffffffffffffffffffffffffffffffff16908173ffffffffffffffffffffffffffffffffffffffff16815250506001846112e3919061393c565b93505b5080806112f290613970565b915050611163565b5060005b6005805490508110156114a7576000600582815481106113215761132061387e565b5b90600052602060002090600202016040518060400160405290816000820160009054906101000a900473ffffffffffffffffffffffffffffffffffffffff1673ffffffffffffffffffffffffffffffffffffffff1673ffffffffffffffffffffffffffffffffffffffff1681526020016001820160009054906101000a900473ffffffffffffffffffffffffffffffffffffffff1673ffffffffffffffffffffffffffffffffffffffff1673ffffffffffffffffffffffffffffffffffffffff168152505090508673ffffffffffffffffffffffffffffffffffffffff16816000015173ffffffffffffffffffffffffffffffffffffffff160361149357600582815481106114335761143261387e565b5b9060005260206000209060020201600080820160006101000a81549073ffffffffffffffffffffffffffffffffffffffff02191690556001820160006101000a81549073ffffffffffffffffffffffffffffffffffffffff021916905550505b50808061149f90613970565b9150506112fe565b50809350505050919050565b6114bc836106de565b156114fc576040517f08c379a00000000000000000000000000000000000000000000000000000000081526004016114f390613df1565b60405180910390fd5b806000808473ffffffffffffffffffffffffffffffffffffffff1673ffffffffffffffffffffffffffffffffffffffff16815260200190815260200160002060006101000a81548173ffffffffffffffffffffffffffffffffffffffff021916908373ffffffffffffffffffffffffffffffffffffffff160217905550600060405180604001604052808473ffffffffffffffffffffffffffffffffffffffff1681526020018373ffffffffffffffffffffffffffffffffffffffff168152509050806001856040516115cf91906139f4565b908152602001604051809103902060008201518160000160006101000a81548173ffffffffffffffffffffffffffffffffffffffff021916908373ffffffffffffffffffffffffffffffffffffffff16021790555060208201518160010160006101000a81548173ffffffffffffffffffffffffffffffffffffffff021916908373ffffffffffffffffffffffffffffffffffffffff16021790555090505050505050565b60005b60038054905081101561191e5760006003828154811061169a5761169961387e565b5b90600052602060002090600302016040518060600160405290816000820160009054906101000a900473ffffffffffffffffffffffffffffffffffffffff1673ffffffffffffffffffffffffffffffffffffffff1673ffffffffffffffffffffffffffffffffffffffff168152602001600182018054611719906138dc565b80601f0160208091040260200160405190810160405280929190818152602001828054611745906138dc565b80156117925780601f1061176757610100808354040283529160200191611792565b820191906000526020600020905b81548152906001019060200180831161177557829003601f168201915b505050505081526020016002820160009054906101000a900473ffffffffffffffffffffffffffffffffffffffff1673ffffffffffffffffffffffffffffffffffffffff1673ffffffffffffffffffffffffffffffffffffffff168152505090508373ffffffffffffffffffffffffffffffffffffffff16816040015173ffffffffffffffffffffffffffffffffffffffff160361190a5760008160000151905060008060008373ffffffffffffffffffffffffffffffffffffffff1673ffffffffffffffffffffffffffffffffffffffff16815260200190815260200160002060009054906101000a900473ffffffffffffffffffffffffffffffffffffffff16905060008190508073ffffffffffffffffffffffffffffffffffffffff1663d65ec855876040518263ffffffff1660e01b81526004016118d4919061340d565b600060405180830381600087803b1580156118ee57600080fd5b505af1158015611902573d6000803e3d6000fd5b505050505050505b50808061191690613970565b915050611677565b505050565b6060600060018860405161193791906139f4565b90815260200160405180910390206040518060400160405290816000820160009054906101000a900473ffffffffffffffffffffffffffffffffffffffff1673ffffffffffffffffffffffffffffffffffffffff1673ffffffffffffffffffffffffffffffffffffffff1681526020016001820160009054906101000a900473ffffffffffffffffffffffffffffffffffffffff1673ffffffffffffffffffffffffffffffffffffffff1673ffffffffffffffffffffffffffffffffffffffff168152505090506000816020015190506000604051806020016040528060008152509050600060018a8a8a8a60405160008152602001604052604051611a409493929190613a29565b6020604051602081039080840390855afa158015611a62573d6000803e3d6000fd5b5050506020604051035190507f000000000000000000000000000000000000000000000000000000000000000073ffffffffffffffffffffffffffffffffffffffff168173ffffffffffffffffffffffffffffffffffffffff1603611b4057858a03611b3f578273ffffffffffffffffffffffffffffffffffffffff166357a460796040518163ffffffff1660e01b8152600401600060405180830381865afa158015611b13573d6000803e3d6000fd5b505050506040513d6000823e3d601f19601f82011682018060405250810190611b3c9190613d5c565b91505b5b819450505050509695505050505050565b611b59612e15565b6000600183604051611b6b91906139f4565b90815260200160405180910390206040518060400160405290816000820160009054906101000a900473ffffffffffffffffffffffffffffffffffffffff1673ffffffffffffffffffffffffffffffffffffffff1673ffffffffffffffffffffffffffffffffffffffff1681526020016001820160009054906101000a900473ffffffffffffffffffffffffffffffffffffffff1673ffffffffffffffffffffffffffffffffffffffff1673ffffffffffffffffffffffffffffffffffffffff1681525050905080915050919050565b60606000611c4883610faa565b90506000808267ffffffffffffffff811115611c6757611c66612ee2565b5b604051908082528060200260200182016040528015611c955781602001602082028036833780820191505090505b50905060005b600280549050811015611e3257600060028281548110611cbe57611cbd61387e565b5b90600052602060002090600202016040518060400160405290816000820160009054906101000a900473ffffffffffffffffffffffffffffffffffffffff1673ffffffffffffffffffffffffffffffffffffffff1673ffffffffffffffffffffffffffffffffffffffff1681526020016001820160009054906101000a900473ffffffffffffffffffffffffffffffffffffffff1673ffffffffffffffffffffffffffffffffffffffff1673ffffffffffffffffffffffffffffffffffffffff168152505090508673ffffffffffffffffffffffffffffffffffffffff16816020015173ffffffffffffffffffffffffffffffffffffffff1603611e1e578060000151838581518110611dd457611dd361387e565b5b602002602001019073ffffffffffffffffffffffffffffffffffffffff16908173ffffffffffffffffffffffffffffffffffffffff1681525050600184611e1b919061393c565b93505b508080611e2a90613970565b915050611c9b565b50809350505050919050565b60005b6003805490508110156120c857600060038281548110611e6457611e6361387e565b5b90600052602060002090600302016040518060600160405290816000820160009054906101000a900473ffffffffffffffffffffffffffffffffffffffff1673ffffffffffffffffffffffffffffffffffffffff1673ffffffffffffffffffffffffffffffffffffffff168152602001600182018054611ee3906138dc565b80601f0160208091040260200160405190810160405280929190818152602001828054611f0f906138dc565b8015611f5c5780601f10611f3157610100808354040283529160200191611f5c565b820191906000526020600020905b815481529060010190602001808311611f3f57829003601f168201915b505050505081526020016002820160009054906101000a900473ffffffffffffffffffffffffffffffffffffffff1673ffffffffffffffffffffffffffffffffffffffff1673ffffffffffffffffffffffffffffffffffffffff168152505090508373ffffffffffffffffffffffffffffffffffffffff16816000015173ffffffffffffffffffffffffffffffffffffffff1614801561202b57508273ffffffffffffffffffffffffffffffffffffffff16816040015173ffffffffffffffffffffffffffffffffffffffff16145b156120b457600382815481106120445761204361387e565b5b9060005260206000209060030201600080820160006101000a81549073ffffffffffffffffffffffffffffffffffffffff021916905560018201600061208a9190612e5b565b6002820160006101000a81549073ffffffffffffffffffffffffffffffffffffffff021916905550505b5080806120c090613970565b915050611e41565b505050565b60008060008373ffffffffffffffffffffffffffffffffffffffff1673ffffffffffffffffffffffffffffffffffffffff16815260200190815260200160002060009054906101000a900473ffffffffffffffffffffffffffffffffffffffff169050919050565b60005b6002805490508110156124375760006002828154811061215b5761215a61387e565b5b90600052602060002090600202016040518060400160405290816000820160009054906101000a900473ffffffffffffffffffffffffffffffffffffffff1673ffffffffffffffffffffffffffffffffffffffff1673ffffffffffffffffffffffffffffffffffffffff1681526020016001820160009054906101000a900473ffffffffffffffffffffffffffffffffffffffff1673ffffffffffffffffffffffffffffffffffffffff1673ffffffffffffffffffffffffffffffffffffffff168152505090508473ffffffffffffffffffffffffffffffffffffffff16816020015173ffffffffffffffffffffffffffffffffffffffff1614801561229057508373ffffffffffffffffffffffffffffffffffffffff16816000015173ffffffffffffffffffffffffffffffffffffffff16145b156124235761229e82612c73565b821561236557600481908060018154018082558091505060019003906000526020600020906002020160009091909190915060008201518160000160006101000a81548173ffffffffffffffffffffffffffffffffffffffff021916908373ffffffffffffffffffffffffffffffffffffffff16021790555060208201518160010160006101000a81548173ffffffffffffffffffffffffffffffffffffffff021916908373ffffffffffffffffffffffffffffffffffffffff1602179055505050612422565b600581908060018154018082558091505060019003906000526020600020906002020160009091909190915060008201518160000160006101000a81548173ffffffffffffffffffffffffffffffffffffffff021916908373ffffffffffffffffffffffffffffffffffffffff16021790555060208201518160010160006101000a81548173ffffffffffffffffffffffffffffffffffffffff021916908373ffffffffffffffffffffffffffffffffffffffff16021790555050505b5b50808061242f90613970565b915050612138565b50505050565b6060600061244a836104b3565b90506000808267ffffffffffffffff81111561246957612468612ee2565b5b6040519080825280602002602001820160405280156124975781602001602082028036833780820191505090505b50905060005b85518110156127025760008682815181106124bb576124ba61387e565b5b6020026020010151905060005b6003805490508110156126ed576000600382815481106124eb576124ea61387e565b5b90600052602060002090600302016040518060600160405290816000820160009054906101000a900473ffffffffffffffffffffffffffffffffffffffff1673ffffffffffffffffffffffffffffffffffffffff1673ffffffffffffffffffffffffffffffffffffffff16815260200160018201805461256a906138dc565b80601f0160208091040260200160405190810160405280929190818152602001828054612596906138dc565b80156125e35780601f106125b8576101008083540402835291602001916125e3565b820191906000526020600020905b8154815290600101906020018083116125c657829003601f168201915b505050505081526020016002820160009054906101000a900473ffffffffffffffffffffffffffffffffffffffff1673ffffffffffffffffffffffffffffffffffffffff1673ffffffffffffffffffffffffffffffffffffffff168152505090508273ffffffffffffffffffffffffffffffffffffffff16816040015173ffffffffffffffffffffffffffffffffffffffff16036126d9578285878151811061268f5761268e61387e565b5b602002602001019073ffffffffffffffffffffffffffffffffffffffff16908173ffffffffffffffffffffffffffffffffffffffff16815250506001866126d6919061393c565b95505b5080806126e590613970565b9150506124c8565b505080806126fa90613970565b91505061249d565b50809350505050919050565b60008060008473ffffffffffffffffffffffffffffffffffffffff1673ffffffffffffffffffffffffffffffffffffffff16815260200190815260200160002060009054906101000a900473ffffffffffffffffffffffffffffffffffffffff16905060008190508073ffffffffffffffffffffffffffffffffffffffff16631965a285846040518263ffffffff1660e01b81526004016127af919061371c565b600060405180830381600087803b1580156127c957600080fd5b505af11580156127dd573d6000803e3d6000fd5b5050505050505050565b60008060008473ffffffffffffffffffffffffffffffffffffffff1673ffffffffffffffffffffffffffffffffffffffff16815260200190815260200160002060009054906101000a900473ffffffffffffffffffffffffffffffffffffffff16905060008190508073ffffffffffffffffffffffffffffffffffffffff16634a9ae94a86856040518363ffffffff1660e01b815260040161288a929190613e11565b600060405180830381600087803b1580156128a457600080fd5b505af11580156128b8573d6000803e3d6000fd5b505050505050505050565b606060006128d0836108c0565b90506000808267ffffffffffffffff8111156128ef576128ee612ee2565b5b60405190808252806020026020018201604052801561291d5781602001602082028036833780820191505090505b50905060005b600480549050811015612aba576000600482815481106129465761294561387e565b5b90600052602060002090600202016040518060400160405290816000820160009054906101000a900473ffffffffffffffffffffffffffffffffffffffff1673ffffffffffffffffffffffffffffffffffffffff1673ffffffffffffffffffffffffffffffffffffffff1681526020016001820160009054906101000a900473ffffffffffffffffffffffffffffffffffffffff1673ffffffffffffffffffffffffffffffffffffffff1673ffffffffffffffffffffffffffffffffffffffff168152505090508673ffffffffffffffffffffffffffffffffffffffff16816000015173ffffffffffffffffffffffffffffffffffffffff1603612aa6578060200151838581518110612a5c57612a5b61387e565b5b602002602001019073ffffffffffffffffffffffffffffffffffffffff16908173ffffffffffffffffffffffffffffffffffffffff1681525050600184612aa3919061393c565b93505b508080612ab290613970565b915050612923565b5060005b600480549050811015612c6757600060048281548110612ae157612ae061387e565b5b90600052602060002090600202016040518060400160405290816000820160009054906101000a900473ffffffffffffffffffffffffffffffffffffffff1673ffffffffffffffffffffffffffffffffffffffff1673ffffffffffffffffffffffffffffffffffffffff1681526020016001820160009054906101000a900473ffffffffffffffffffffffffffffffffffffffff1673ffffffffffffffffffffffffffffffffffffffff1673ffffffffffffffffffffffffffffffffffffffff168152505090508673ffffffffffffffffffffffffffffffffffffffff16816000015173ffffffffffffffffffffffffffffffffffffffff1603612c535760048281548110612bf357612bf261387e565b5b9060005260206000209060020201600080820160006101000a81549073ffffffffffffffffffffffffffffffffffffffff02191690556001820160006101000a81549073ffffffffffffffffffffffffffffffffffffffff021916905550505b508080612c5f90613970565b915050612abe565b50809350505050919050565b60026001600280549050612c879190613e41565b81548110612c9857612c9761387e565b5b906000526020600020906002020160028281548110612cba57612cb961387e565b5b90600052602060002090600202016000820160009054906101000a900473ffffffffffffffffffffffffffffffffffffffff168160000160006101000a81548173ffffffffffffffffffffffffffffffffffffffff021916908373ffffffffffffffffffffffffffffffffffffffff1602179055506001820160009054906101000a900473ffffffffffffffffffffffffffffffffffffffff168160010160006101000a81548173ffffffffffffffffffffffffffffffffffffffff021916908373ffffffffffffffffffffffffffffffffffffffff1602179055509050506002805480612dab57612daa613e75565b5b6001900381819060005260206000209060020201600080820160006101000a81549073ffffffffffffffffffffffffffffffffffffffff02191690556001820160006101000a81549073ffffffffffffffffffffffffffffffffffffffff02191690555050905550565b6040518060400160405280600073ffffffffffffffffffffffffffffffffffffffff168152602001600073ffffffffffffffffffffffffffffffffffffffff1681525090565b508054612e67906138dc565b6000825580601f10612e795750612e98565b601f016020900490600052602060002090810190612e979190612e9b565b5b50565b5b80821115612eb4576000816000905550600101612e9c565b5090565b6000604051905090565b600080fd5b600080fd5b600080fd5b6000601f19601f8301169050919050565b7f4e487b7100000000000000000000000000000000000000000000000000000000600052604160045260246000fd5b612f1a82612ed1565b810181811067ffffffffffffffff82111715612f3957612f38612ee2565b5b80604052505050565b6000612f4c612eb8565b9050612f588282612f11565b919050565b600067ffffffffffffffff821115612f7857612f77612ee2565b5b602082029050602081019050919050565b600080fd5b600073ffffffffffffffffffffffffffffffffffffffff82169050919050565b6000612fb982612f8e565b9050919050565b612fc981612fae565b8114612fd457600080fd5b50565b600081359050612fe681612fc0565b92915050565b6000612fff612ffa84612f5d565b612f42565b9050808382526020820190506020840283018581111561302257613021612f89565b5b835b8181101561304b57806130378882612fd7565b845260208401935050602081019050613024565b5050509392505050565b600082601f83011261306a57613069612ecc565b5b813561307a848260208601612fec565b91505092915050565b60006020828403121561309957613098612ec2565b5b600082013567ffffffffffffffff8111156130b7576130b6612ec7565b5b6130c384828501613055565b91505092915050565b6000819050919050565b6130df816130cc565b82525050565b60006020820190506130fa60008301846130d6565b92915050565b600080fd5b600067ffffffffffffffff8211156131205761311f612ee2565b5b61312982612ed1565b9050602081019050919050565b82818337600083830152505050565b600061315861315384613105565b612f42565b90508281526020810184848401111561317457613173613100565b5b61317f848285613136565b509392505050565b600082601f83011261319c5761319b612ecc565b5b81356131ac848260208601613145565b91505092915050565b6000602082840312156131cb576131ca612ec2565b5b600082013567ffffffffffffffff8111156131e9576131e8612ec7565b5b6131f584828501613187565b91505092915050565b60008115159050919050565b613213816131fe565b82525050565b600060208201905061322e600083018461320a565b92915050565b60006020828403121561324a57613249612ec2565b5b600061325884828501612fd7565b91505092915050565b6000819050919050565b61327481613261565b811461327f57600080fd5b50565b6000813590506132918161326b565b92915050565b600060ff82169050919050565b6132ad81613297565b81146132b857600080fd5b50565b6000813590506132ca816132a4565b92915050565b600080600080600080600060e0888a0312156132ef576132ee612ec2565b5b600088013567ffffffffffffffff81111561330d5761330c612ec7565b5b6133198a828b01613187565b975050602061332a8a828b01612fd7565b965050604061333b8a828b01613282565b955050606061334c8a828b016132bb565b945050608061335d8a828b01613282565b93505060a061336e8a828b01613282565b92505060c061337f8a828b01613282565b91505092959891949750929550565b600081519050919050565b600082825260208201905092915050565b60005b838110156133c85780820151818401526020810190506133ad565b60008484015250505050565b60006133df8261338e565b6133e98185613399565b93506133f98185602086016133aa565b61340281612ed1565b840191505092915050565b6000602082019050818103600083015261342781846133d4565b905092915050565b6000806040838503121561344657613445612ec2565b5b600061345485828601612fd7565b925050602061346585828601612fd7565b9150509250929050565b600081519050919050565b600082825260208201905092915050565b6000819050602082019050919050565b6134a481612fae565b82525050565b60006134b6838361349b565b60208301905092915050565b6000602082019050919050565b60006134da8261346f565b6134e4818561347a565b93506134ef8361348b565b8060005b8381101561352057815161350788826134aa565b9750613512836134c2565b9250506001810190506134f3565b5085935050505092915050565b6000602082019050818103600083015261354781846134cf565b905092915050565b60008060006060848603121561356857613567612ec2565b5b600084013567ffffffffffffffff81111561358657613585612ec7565b5b61359286828701613187565b93505060206135a386828701612fd7565b92505060406135b486828701612fd7565b9150509250925092565b600080604083850312156135d5576135d4612ec2565b5b60006135e385828601612fd7565b925050602083013567ffffffffffffffff81111561360457613603612ec7565b5b61361085828601613187565b9150509250929050565b60008060008060008060c0878903121561363757613636612ec2565b5b600087013567ffffffffffffffff81111561365557613654612ec7565b5b61366189828a01613187565b965050602061367289828a01613282565b955050604061368389828a016132bb565b945050606061369489828a01613282565b93505060806136a589828a01613282565b92505060a06136b689828a01613282565b9150509295509295509295565b6040820160008201516136d9600085018261349b565b5060208201516136ec602085018261349b565b50505050565b600060408201905061370760008301846136c3565b92915050565b61371681612fae565b82525050565b6000602082019050613731600083018461370d565b92915050565b613740816131fe565b811461374b57600080fd5b50565b60008135905061375d81613737565b92915050565b60008060006060848603121561377c5761377b612ec2565b5b600061378a86828701612fd7565b935050602061379b86828701612fd7565b92505060406137ac8682870161374e565b9150509250925092565b6000806000606084860312156137cf576137ce612ec2565b5b60006137dd86828701612fd7565b93505060206137ee86828701612fd7565b925050604084013567ffffffffffffffff81111561380f5761380e612ec7565b5b61381b86828701613187565b9150509250925092565b61382e816130cc565b811461383957600080fd5b50565b60008135905061384b81613825565b92915050565b60006020828403121561386757613866612ec2565b5b60006138758482850161383c565b91505092915050565b7f4e487b7100000000000000000000000000000000000000000000000000000000600052603260045260246000fd5b7f4e487b7100000000000000000000000000000000000000000000000000000000600052602260045260246000fd5b600060028204905060018216806138f457607f821691505b602082108103613907576139066138ad565b5b50919050565b7f4e487b7100000000000000000000000000000000000000000000000000000000600052601160045260246000fd5b6000613947826130cc565b9150613952836130cc565b925082820190508082111561396a5761396961390d565b5b92915050565b600061397b826130cc565b91507fffffffffffffffffffffffffffffffffffffffffffffffffffffffffffffffff82036139ad576139ac61390d565b5b600182019050919050565b600081905092915050565b60006139ce8261338e565b6139d881856139b8565b93506139e88185602086016133aa565b80840191505092915050565b6000613a0082846139c3565b915081905092915050565b613a1481613261565b82525050565b613a2381613297565b82525050565b6000608082019050613a3e6000830187613a0b565b613a4b6020830186613a1a565b613a586040830185613a0b565b613a656060830184613a0b565b95945050505050565b60008190508160005260206000209050919050565b60006020601f8301049050919050565b600082821b905092915050565b600060088302613ad07fffffffffffffffffffffffffffffffffffffffffffffffffffffffffffffffff82613a93565b613ada8683613a93565b95508019841693508086168417925050509392505050565b6000819050919050565b6000613b17613b12613b0d846130cc565b613af2565b6130cc565b9050919050565b6000819050919050565b613b3183613afc565b613b45613b3d82613b1e565b848454613aa0565b825550505050565b600090565b613b5a613b4d565b613b65818484613b28565b505050565b5b81811015613b8957613b7e600082613b52565b600181019050613b6b565b5050565b601f821115613bce57613b9f81613a6e565b613ba884613a83565b81016020851015613bb7578190505b613bcb613bc385613a83565b830182613b6a565b50505b505050565b600082821c905092915050565b6000613bf160001984600802613bd3565b1980831691505092915050565b6000613c0a8383613be0565b9150826002028217905092915050565b613c238261338e565b67ffffffffffffffff811115613c3c57613c3b612ee2565b5b613c4682546138dc565b613c51828285613b8d565b600060209050601f831160018114613c845760008415613c72578287015190505b613c7c8582613bfe565b865550613ce4565b601f198416613c9286613a6e565b60005b82811015613cba57848901518255600182019150602085019450602081019050613c95565b86831015613cd75784890151613cd3601f891682613be0565b8355505b6001600288020188555050505b505050505050565b6000613cff613cfa84613105565b612f42565b905082815260208101848484011115613d1b57613d1a613100565b5b613d268482856133aa565b509392505050565b600082601f830112613d4357613d42612ecc565b5b8151613d53848260208601613cec565b91505092915050565b600060208284031215613d7257613d71612ec2565b5b600082015167ffffffffffffffff811115613d9057613d8f612ec7565b5b613d9c84828501613d2e565b91505092915050565b7f4e616d6520616c72656164792065786973747300000000000000000000000000600082015250565b6000613ddb601383613399565b9150613de682613da5565b602082019050919050565b60006020820190508181036000830152613e0a81613dce565b9050919050565b6000604082019050613e26600083018561370d565b8181036020830152613e3881846133d4565b90509392505050565b6000613e4c826130cc565b9150613e57836130cc565b9250828203905081811115613e6f57613e6e61390d565b5b92915050565b7f4e487b7100000000000000000000000000000000000000000000000000000000600052603160045260246000fdfea2646970667358221220b9d0e3e555c2c3852fb60fbdfcc9110fea53a547fce14e80bb9795ccb69f0fc264736f6c63430008130033",
  "immutableReferences": {
    "1038": [
      {
        "length": 32,
        "start": 2975
      },
      {
        "length": 32,
        "start": 6768
      }
    ]
  },
  "source": "//SPDX-License-Identifier: MIT\r\npragma solidity ^0.8.17;\r\n\r\nimport \"./Node.sol\";\r\n//secretHolder \r\ncontract PublicContract {\r\n    //sample node \r\n    struct SampleNode{\r\n        address publicAddress;\r\n        address contractAddress;\r\n        \r\n    }\r\n\r\n    //Request type to add as a share holder\r\n    struct Request{\r\n        address secretOwner;\r\n        address shareHolder;\r\n    }\r\n\r\n    //Share structure\r\n    struct Share{\r\n        address secretOwner;\r\n        address shareHolder;\r\n        string sharedString;\r\n    }\r\n\r\n    //Request to release the secret \r\n    struct ShareRequest{\r\n        address requesterAddress;\r\n        string name;\r\n        address ownerAddress;\r\n    }\r\n    address immutable private owner;  //Owner address\r\n\r\n    //address to contract address map\r\n    mapping (address => address ) private  myAddressToContractAddressMap;\r\n\r\n    //name to sample nodes map\r\n    mapping(string => SampleNode) private sampleNodesMap;\r\n\r\n    //be a holder requests list\r\n    Request[] private holderRequests;\r\n\r\n    //secret requesting list original owner's address and requester's address mapping\r\n    ShareRequest[] private secretRequests;\r\n\r\n    // //Released shares for holders\r\n    // Share[] assignedSharesForHolders;\r\n\r\n    // //Released Shares for owners \r\n    // Share[] releasedSharesByHolders;\r\n\r\n    //accepted requests to bea share holder \r\n    //Request[] public acceptedBeShareHolderRequests;\r\n    Request[] private acceptedShareHolderRequests;\r\n\r\n    //Cancelled requests to be a share holder\r\n    Request[] private rejectedShareHolderRequests;\r\n\r\n    constructor() { \r\n        owner = msg.sender;\r\n    }\r\n\r\n//Check whether username already exist\r\n    function isExists(string memory name) public view returns (bool){\r\n        if(sampleNodesMap[name].publicAddress == address(0)){\r\n            return false;\r\n        }\r\n        return true;\r\n    }\r\n\r\n\r\n\r\n//Register to the public contract \r\n    function register(string memory  name,address publicAddress,address myContractAddress)public {\r\n        require(!isExists(name), \"Name already exists\");\r\n        //nodesMap[name]=node;\r\n        myAddressToContractAddressMap[publicAddress]=myContractAddress;\r\n        SampleNode memory registeringNode= SampleNode(publicAddress,myContractAddress);\r\n        sampleNodesMap[name]=registeringNode;\r\n        return;\r\n    }\r\n\r\n//Get node contract object using the name \r\n    function getContractAddressByName(string memory name) public view returns(SampleNode memory){\r\n        SampleNode memory new_node= sampleNodesMap[name];\r\n        return new_node;\r\n    }\r\n//Get contractAddress using the publicAddress\r\n    function getContractAddressByPublicAddress(address publicAddress) public view returns(address ){\r\n        return myAddressToContractAddressMap[publicAddress];\r\n    }\r\n\r\n//! Access public contract as a share holder --------------------------------------------------------\r\n\r\n//Check there are any requests to add me as a share holder\r\n    function checkRequestsByShareholder(address holderAddress)public view returns(address[] memory ) {\r\n        uint256 tot = getSecretOwnerAddressesCountInHolderRequests(holderAddress); // write a method named getSecretOwnerAddressesCount() to get secretOwnerAddresses count\r\n        uint256 count = 0;\r\n        address[] memory  _secretOwnerAddress= new address[](tot);\r\n        for (uint256 i = 0; i<holderRequests.length; i++){\r\n            Request memory request= holderRequests[i];\r\n            if (request.shareHolder==holderAddress){\r\n            _secretOwnerAddress[count] = request.secretOwner;\r\n            count = count + 1;\r\n            }\r\n\r\n        }\r\n     return _secretOwnerAddress;\r\n    }\r\n\r\n    function getSecretOwnerAddressesCountInHolderRequests(address holderAddress)public view returns(uint256) {\r\n        uint256  count = 0;\r\n        for (uint256 i=0; i<holderRequests.length; i++){\r\n            Request memory request= holderRequests[i];\r\n            if (request.shareHolder==holderAddress){\r\n                count = count + 1;\r\n            }\r\n\r\n        }\r\n        return count;\r\n    }\r\n\r\n//Check there is someone asking for the share from me \r\n    function checkRequestsForTheSeceret(address[]memory secretOwners)public view returns(address[] memory ) {\r\n        uint256 tot = getSecretOwnerAddressesCountInSecretRequests(secretOwners); // write a method named getSecretOwnerAddressesCount() to get secretOwnerAddresses count\r\n        uint256 count = 0;\r\n        address[] memory _secretOwnerAddresses = new address[](tot);\r\n    \r\n        for (uint256 i = 0; i<secretOwners.length; i++){\r\n            address  tempOwner=secretOwners[i];\r\n            for (uint256 j = 0; j<secretRequests.length; j++){\r\n                ShareRequest memory tempSecretRequest=secretRequests[j];\r\n                if (tempSecretRequest.ownerAddress==tempOwner){\r\n                    _secretOwnerAddresses[count] = tempOwner;\r\n                    count = count + 1;\r\n                }\r\n\r\n            }\r\n\r\n        }\r\n     return _secretOwnerAddresses;\r\n    }\r\n    \r\n\r\n    function getSecretOwnerAddressesCountInSecretRequests(address[]memory secretOwners)public view returns(uint256) {\r\n        uint256  count = 0;\r\n        for (uint256 i = 0; i<secretOwners.length; i++){\r\n           address  tempOwner =secretOwners[i];\r\n            for (uint256 j = 0; j<secretRequests.length; j++){\r\n                ShareRequest memory tempSecretRequest=secretRequests[j];\r\n                if (tempSecretRequest.ownerAddress==tempOwner){\r\n                    count = count + 1;\r\n                }\r\n\r\n            }\r\n\r\n        }\r\n        return count;\r\n    }\r\n//Delete the share request //Todo \r\n    function deleteShareRequest(address requseterAddress,address secretOwnerAddress)public{\r\n        for (uint256 i = 0; i<secretRequests.length; i++){\r\n            ShareRequest memory tempSecretRequest=secretRequests[i];\r\n            if(tempSecretRequest.requesterAddress ==requseterAddress && tempSecretRequest.ownerAddress ==secretOwnerAddress){\r\n                delete secretRequests[i];\r\n            }\r\n\r\n        }\r\n    }\r\n\r\n//Give my release to the public \r\n    function releaseTheSecret(address secretOwner,string memory sharedString)public {\r\n         for (uint256 i = 0; i<secretRequests.length; i++){\r\n            ShareRequest memory tempSecretRequest=secretRequests[i];\r\n            if(tempSecretRequest.ownerAddress==secretOwner){\r\n                address requester= tempSecretRequest.requesterAddress;\r\n                address requesterContractAddress=myAddressToContractAddressMap[requester];\r\n                Node requesterContract= Node(requesterContractAddress);\r\n                requesterContract.saveToRegeneratedShares(sharedString);\r\n            }\r\n\r\n        }\r\n    }\r\n\r\n//update the secret owner's  accepted to release list \r\n    function updateOwnersAcceptedToReleaseList(address secretOwner,address shareHolder)public {\r\n        address secretOwnerContractAddress=myAddressToContractAddressMap[secretOwner];\r\n        Node secretOwnerContract= Node(secretOwnerContractAddress);\r\n        secretOwnerContract.saveToReleaseAcceptedShareHolders(shareHolder);\r\n    }\r\n\r\n//remove from holder request list \r\n    function removeFromHolderRequestList(uint256 index) public {\r\n        // Move the last element into the place to delete\r\n        holderRequests[index] = holderRequests[holderRequests.length - 1];\r\n        // Remove the last element\r\n        holderRequests.pop();\r\n    }\r\n\r\n//Respond to be the share holder \r\n    function respondToBeShareHolder(address shareHolder,address secretOwner,bool  acceptance)public {\r\n        for (uint256 i = 0; i<holderRequests.length; i++){\r\n            Request memory request= holderRequests[i];\r\n            if (request.shareHolder==shareHolder && request.secretOwner==secretOwner){\r\n                removeFromHolderRequestList(i);\r\n                if (acceptance){\r\n                    acceptedShareHolderRequests.push(request);\r\n                }else{\r\n                    rejectedShareHolderRequests.push(request);\r\n                }\r\n            }\r\n        }\r\n    }\r\n\r\n\r\n\r\n\r\n//Access as a secret owner ----------------------------------------------------------------------\r\n\r\n//Make a request to add a node as a share holder\r\n    function makeARequestToBeAShareHolder(address secretOwner,address holder)public {\r\n        Request memory new_request= Request(secretOwner,holder);\r\n        holderRequests.push(new_request);\r\n\r\n\r\n }\r\n//get the count of the accepted holders list \r\n    function getSecretHolderAddressesCountInAcceptedHoldersList(address ownerAddress)public view returns(uint256) {\r\n        uint256  count = 0;\r\n        for (uint256 i = 0; i<acceptedShareHolderRequests.length; i++){\r\n            Request memory request= acceptedShareHolderRequests[i];\r\n            if (request.secretOwner==ownerAddress){\r\n                count = count + 1;\r\n            }\r\n\r\n        }\r\n        return count;\r\n    }\r\n\r\n//get the be holder request accepted holders list \r\n    function getRequestAcceptedHoldersList(address secretOwner)public returns(address[] memory) {\r\n        uint256 tot = getSecretHolderAddressesCountInAcceptedHoldersList(secretOwner); // write a method named getSecretOwnerAddressesCount() to get secretOwnerAddresses count\r\n        uint256 count = 0;\r\n        address[] memory _shareHolderAddresses = new address[](tot);\r\n        \r\n\r\n        for (uint256 i = 0; i<acceptedShareHolderRequests.length; i++){\r\n            Request memory request= acceptedShareHolderRequests[i];\r\n            if (request.secretOwner==secretOwner){\r\n                _shareHolderAddresses[count] = request.shareHolder;\r\n                count = count + 1;\r\n            }\r\n\r\n        }\r\n        for (uint256 i = 0; i<acceptedShareHolderRequests.length; i++){\r\n            Request memory request= acceptedShareHolderRequests[i];\r\n            if (request.secretOwner==secretOwner){\r\n                delete acceptedShareHolderRequests[i];\r\n            }\r\n\r\n        }\r\n     return _shareHolderAddresses;\r\n    }\r\n    //get the count of the accepted holders list \r\n    function getSecretHolderAddressesCountInRejectedHoldersList(address ownerAddress)public view returns(uint256) {\r\n        uint256  count = 0;\r\n        for (uint256 i = 0; i<rejectedShareHolderRequests.length; i++){\r\n            Request memory request= rejectedShareHolderRequests[i];\r\n            if (request.secretOwner==ownerAddress){\r\n                count = count + 1;\r\n            }\r\n\r\n        }\r\n        return count;\r\n    }\r\n    //get the be holder request rejected holders list \r\n    function getRequestRejectedHoldersList(address secretOwner)public returns(address[] memory) {\r\n        uint256 tot = getSecretHolderAddressesCountInRejectedHoldersList(secretOwner); // write a method named getSecretOwnerAddressesCount() to get secretOwnerAddresses count\r\n        uint256 count = 0;\r\n        address[] memory _shareHolderAddresses = new address[](tot);\r\n        \r\n\r\n        for (uint256 i = 0; i<rejectedShareHolderRequests.length; i++){\r\n            Request memory request= rejectedShareHolderRequests[i];\r\n            if (request.secretOwner==secretOwner){\r\n                _shareHolderAddresses[count] = request.shareHolder;\r\n                count = count + 1;\r\n            }\r\n\r\n        }\r\n        for (uint256 i = 0; i<rejectedShareHolderRequests.length; i++){\r\n            Request memory request= rejectedShareHolderRequests[i];\r\n            if (request.secretOwner==secretOwner){\r\n                delete rejectedShareHolderRequests[i];\r\n            }\r\n\r\n        }\r\n     return _shareHolderAddresses;\r\n    }\r\n\r\n// Make shares accessible to the share holders \r\n    function makeSharesAccessibleToTheHolders(address secretOwner,address holder,string memory sharedString) public{\r\n        address myContractAddress= myAddressToContractAddressMap[holder];\r\n        Node distributingNode= Node(myContractAddress);\r\n        distributingNode.takeTheSecretFromTheOwner(secretOwner,sharedString);\r\n        return;\r\n    }\r\n\r\n//Make a request that I need the shares   \r\n    function makeARequestToGetShares(string memory name,address requesterAddress,bytes32 msgh1, uint8 v, bytes32 r, bytes32 s,bytes32 msgh2)public {\r\n        SampleNode memory sampleNode= sampleNodesMap[name];\r\n        Node secretOwnerContract= Node(sampleNode.contractAddress);\r\n        ShareRequest memory shareRequest=ShareRequest(requesterAddress,name,sampleNode.publicAddress);\r\n        address sender=ecrecover(msgh1, v, r, s);\r\n        if(sender==owner){\r\n            if (msgh1==msgh2){\r\n                secretRequests.push(shareRequest);\r\n                secretOwnerContract.setRequester(msg.sender);\r\n            }\r\n        }\r\n        \r\n        return;\r\n\r\n    }\r\n    function makeARequestToGetVaultHash(string memory name,bytes32 msgh1, uint8 v, bytes32 r, bytes32 s,bytes32 msgh2)public view returns(string memory) {\r\n        SampleNode memory sampleNode= sampleNodesMap[name];\r\n        Node secretOwnerContract= Node(sampleNode.contractAddress);\r\n        string memory tempVault=\"\";\r\n        address sender=ecrecover(msgh1, v, r, s);\r\n        if(sender==owner){\r\n            if (msgh1==msgh2){\r\n                tempVault=secretOwnerContract.returnMyVaultHash();\r\n            }\r\n        }\r\n        \r\n        return tempVault;\r\n\r\n    }\r\n//get email address by user name\r\n    function getEmailAddressByUserName(string memory name)public view returns(string memory) {\r\n        SampleNode memory sampleNode= sampleNodesMap[name];\r\n        Node secretOwnerContract= Node(sampleNode.contractAddress);\r\n        \r\n        return secretOwnerContract.getEmailAddress();\r\n\r\n    }\r\n\r\n\r\n    \r\n}\r\n",
  "sourcePath": "C:\\Users\\Sandaru Kaveesha\\AndroidStudioProjects\\Pheonix\\contracts\\contracts\\PublicContract.sol",
  "compiler": {
    "name": "solc",
    "version": "0.8.19+commit.7dd6d404.Emscripten.clang"
  },
  "schemaVersion": "3.4.13",
  "updatedAt": "2023-05-02T15:38:53.568Z",
  "devdoc": {
    "kind": "dev",
    "methods": {},
    "version": 1
  },
  "userdoc": {
    "kind": "user",
    "methods": {},
    "version": 1
  }
}